{
  "contractName": "Box2",
  "abi": [
    {
      "anonymous": false,
      "inputs": [
        {
          "indexed": true,
          "internalType": "address",
          "name": "previousOwner",
          "type": "address"
        },
        {
          "indexed": true,
          "internalType": "address",
          "name": "newOwner",
          "type": "address"
        }
      ],
      "name": "OwnershipTransferred",
      "type": "event"
    },
    {
      "anonymous": false,
      "inputs": [
        {
          "indexed": false,
          "internalType": "uint256",
          "name": "value",
          "type": "uint256"
        }
      ],
      "name": "ValueChanged",
      "type": "event"
    },
    {
      "inputs": [],
      "name": "owner",
      "outputs": [
        {
          "internalType": "address",
          "name": "",
          "type": "address"
        }
      ],
      "stateMutability": "view",
      "type": "function"
    },
    {
      "inputs": [],
      "name": "renounceOwnership",
      "outputs": [],
      "stateMutability": "nonpayable",
      "type": "function"
    },
    {
      "inputs": [
        {
          "internalType": "address",
          "name": "newOwner",
          "type": "address"
        }
      ],
      "name": "transferOwnership",
      "outputs": [],
      "stateMutability": "nonpayable",
      "type": "function"
    },
    {
      "inputs": [
        {
          "internalType": "uint256",
          "name": "value",
          "type": "uint256"
        }
      ],
      "name": "store",
      "outputs": [],
      "stateMutability": "nonpayable",
      "type": "function"
    },
    {
      "inputs": [],
      "name": "retrieve",
      "outputs": [
        {
          "internalType": "uint256",
          "name": "",
          "type": "uint256"
        }
      ],
      "stateMutability": "view",
      "type": "function"
    }
  ],
  "bytecode": "0x608060405234801561001057600080fd5b5061002d61002261003260201b60201c565b61003a60201b60201c565b6100fe565b600033905090565b60008060009054906101000a900473ffffffffffffffffffffffffffffffffffffffff169050816000806101000a81548173ffffffffffffffffffffffffffffffffffffffff021916908373ffffffffffffffffffffffffffffffffffffffff1602179055508173ffffffffffffffffffffffffffffffffffffffff168173ffffffffffffffffffffffffffffffffffffffff167f8be0079c531659141344cd1fd0a4f28419497f9722a3daafe3b4186f6b6457e060405160405180910390a35050565b6106a18061010d6000396000f3fe608060405234801561001057600080fd5b50600436106100575760003560e01c80632e64cec11461005c5780636057361d1461007a578063715018a6146100965780638da5cb5b146100a0578063f2fde38b146100be575b600080fd5b6100646100da565b604051610071919061042e565b60405180910390f35b610094600480360381019061008f919061047a565b6100e4565b005b61009e6101a1565b005b6100a8610229565b6040516100b591906104e8565b60405180910390f35b6100d860048036038101906100d3919061052f565b610252565b005b6000600154905090565b6100ec610349565b73ffffffffffffffffffffffffffffffffffffffff1661010a610229565b73ffffffffffffffffffffffffffffffffffffffff1614610160576040517f08c379a0000000000000000000000000000000000000000000000000000000008152600401610157906105b9565b60405180910390fd5b806001819055507f93fe6d397c74fdf1402a8b72e47b68512f0510d7b98a4bc4cbdf6ac7108b3c5981604051610196919061042e565b60405180910390a150565b6101a9610349565b73ffffffffffffffffffffffffffffffffffffffff166101c7610229565b73ffffffffffffffffffffffffffffffffffffffff161461021d576040517f08c379a0000000000000000000000000000000000000000000000000000000008152600401610214906105b9565b60405180910390fd5b6102276000610351565b565b60008060009054906101000a900473ffffffffffffffffffffffffffffffffffffffff16905090565b61025a610349565b73ffffffffffffffffffffffffffffffffffffffff16610278610229565b73ffffffffffffffffffffffffffffffffffffffff16146102ce576040517f08c379a00000000000000000000000000000000000000000000000000000000081526004016102c5906105b9565b60405180910390fd5b600073ffffffffffffffffffffffffffffffffffffffff168173ffffffffffffffffffffffffffffffffffffffff160361033d576040517f08c379a00000000000000000000000000000000000000000000000000000000081526004016103349061064b565b60405180910390fd5b61034681610351565b50565b600033905090565b60008060009054906101000a900473ffffffffffffffffffffffffffffffffffffffff169050816000806101000a81548173ffffffffffffffffffffffffffffffffffffffff021916908373ffffffffffffffffffffffffffffffffffffffff1602179055508173ffffffffffffffffffffffffffffffffffffffff168173ffffffffffffffffffffffffffffffffffffffff167f8be0079c531659141344cd1fd0a4f28419497f9722a3daafe3b4186f6b6457e060405160405180910390a35050565b6000819050919050565b61042881610415565b82525050565b6000602082019050610443600083018461041f565b92915050565b600080fd5b61045781610415565b811461046257600080fd5b50565b6000813590506104748161044e565b92915050565b6000602082840312156104905761048f610449565b5b600061049e84828501610465565b91505092915050565b600073ffffffffffffffffffffffffffffffffffffffff82169050919050565b60006104d2826104a7565b9050919050565b6104e2816104c7565b82525050565b60006020820190506104fd60008301846104d9565b92915050565b61050c816104c7565b811461051757600080fd5b50565b60008135905061052981610503565b92915050565b60006020828403121561054557610544610449565b5b60006105538482850161051a565b91505092915050565b600082825260208201905092915050565b7f4f776e61626c653a2063616c6c6572206973206e6f7420746865206f776e6572600082015250565b60006105a360208361055c565b91506105ae8261056d565b602082019050919050565b600060208201905081810360008301526105d281610596565b9050919050565b7f4f776e61626c653a206e6577206f776e657220697320746865207a65726f206160008201527f6464726573730000000000000000000000000000000000000000000000000000602082015250565b600061063560268361055c565b9150610640826105d9565b604082019050919050565b6000602082019050818103600083015261066481610628565b905091905056fea26469706673582212208116e4ac87a9119e0570344af5e57d4e263ae5d659ab817746fec2a8237cb76664736f6c634300080e0033",
  "immutableReferences": {},
  "source": "// contracts/Box.sol\n// SPDX-License-Identifier: MIT\npragma solidity ^0.8.0;\n\n// Import Ownable from the OpenZeppelin Contracts library\nimport \"@openzeppelin/contracts/access/Ownable.sol\";\n\n// Make Box inherit from the Ownable contract\ncontract Box2 is Ownable {\n    uint256 private _value;\n\n    event ValueChanged(uint256 value);\n\n    // The onlyOwner modifier restricts who can call the store function\n    function store(uint256 value) public onlyOwner {\n        _value = value;\n        emit ValueChanged(value);\n    }\n\n    function retrieve() public view returns (uint256) {\n        return _value;\n    }\n}",
  "sourcePath": "/Users/arafkarsh/workspace/blockchain/blockchain-qs/ethereum/truffle-ex-1/contracts/Box2.sol",
  "compiler": {
    "name": "solc",
    "version": "0.8.14+commit.80d49f37.Emscripten.clang"
  },
  "schemaVersion": "3.4.7",
  "updatedAt": "2022-06-05T18:44:00.799Z",
  "devdoc": {
    "kind": "dev",
    "methods": {
      "owner()": {
        "details": "Returns the address of the current owner."
      },
      "renounceOwnership()": {
        "details": "Leaves the contract without owner. It will not be possible to call `onlyOwner` functions anymore. Can only be called by the current owner. NOTE: Renouncing ownership will leave the contract without an owner, thereby removing any functionality that is only available to the owner."
      },
      "transferOwnership(address)": {
        "details": "Transfers ownership of the contract to a new account (`newOwner`). Can only be called by the current owner."
      }
    },
    "version": 1
  },
  "userdoc": {
    "kind": "user",
    "methods": {},
    "version": 1
  }
}