{
  "contractName": "FirstContract",
  "abi": [
    {
      "inputs": [],
      "name": "myGreetings",
      "outputs": [
        {
          "internalType": "string",
          "name": "",
          "type": "string"
        }
      ],
      "stateMutability": "view",
      "type": "function",
      "constant": true
    },
    {
      "inputs": [
        {
          "internalType": "uint256",
          "name": "_age",
          "type": "uint256"
        }
      ],
      "name": "setAge",
      "outputs": [],
      "stateMutability": "nonpayable",
      "type": "function"
    },
    {
      "inputs": [],
      "name": "getGreetings",
      "outputs": [
        {
          "internalType": "string",
          "name": "",
          "type": "string"
        }
      ],
      "stateMutability": "view",
      "type": "function",
      "constant": true
    },
    {
      "inputs": [],
      "name": "depositMoney",
      "outputs": [],
      "stateMutability": "payable",
      "type": "function",
      "payable": true
    },
    {
      "inputs": [],
      "name": "getBalance",
      "outputs": [
        {
          "internalType": "uint256",
          "name": "",
          "type": "uint256"
        }
      ],
      "stateMutability": "view",
      "type": "function",
      "constant": true
    },
    {
      "inputs": [
        {
          "internalType": "address payable",
          "name": "_to",
          "type": "address"
        },
        {
          "internalType": "uint256",
          "name": "_amt",
          "type": "uint256"
        }
      ],
      "name": "withdrawMoneyTo",
      "outputs": [],
      "stateMutability": "nonpayable",
      "type": "function"
    }
  ],
  "bytecode": "0x60806040526040518060400160405280600b81526020017f48656c6c6f20576f726c640000000000000000000000000000000000000000008152506000908051906020019061004f9291906100ae565b506040518060400160405280600e81526020017f48656c6c6f204d7920576f726c640000000000000000000000000000000000008152506002908051906020019061009b9291906100ae565b503480156100a857600080fd5b506101b1565b8280546100ba90610180565b90600052602060002090601f0160209004810192826100dc5760008555610123565b82601f106100f557805160ff1916838001178555610123565b82800160010185558215610123579182015b82811115610122578251825591602001919060010190610107565b5b5090506101309190610134565b5090565b5b8082111561014d576000816000905550600101610135565b5090565b7f4e487b7100000000000000000000000000000000000000000000000000000000600052602260045260246000fd5b6000600282049050600182168061019857607f821691505b6020821081036101ab576101aa610151565b5b50919050565b61068e806101c06000396000f3fe6080604052600436106100555760003560e01c806312065fe01461005a57806316c05aa21461008557806361b49c211461008f57806372f1943e146100b8578063ca4c3a41146100e3578063d5dcf1271461010e575b600080fd5b34801561006657600080fd5b5061006f610137565b60405161007c919061035f565b60405180910390f35b61008d61013f565b005b34801561009b57600080fd5b506100b660048036038101906100b19190610409565b61015a565b005b3480156100c457600080fd5b506100cd61021c565b6040516100da91906104e2565b60405180910390f35b3480156100ef57600080fd5b506100f86102aa565b60405161010591906104e2565b60405180910390f35b34801561011a57600080fd5b5061013560048036038101906101309190610504565b61033c565b005b600047905090565b34600360008282546101519190610560565b92505081905550565b803073ffffffffffffffffffffffffffffffffffffffff166312065fe06040518163ffffffff1660e01b8152600401602060405180830381865afa1580156101a6573d6000803e3d6000fd5b505050506040513d601f19601f820116820180604052508101906101ca91906105cb565b1115610218578173ffffffffffffffffffffffffffffffffffffffff166108fc829081150290604051600060405180830381858888f19350505050158015610216573d6000803e3d6000fd5b505b5050565b6002805461022990610627565b80601f016020809104026020016040519081016040528092919081815260200182805461025590610627565b80156102a25780601f10610277576101008083540402835291602001916102a2565b820191906000526020600020905b81548152906001019060200180831161028557829003601f168201915b505050505081565b6060600080546102b990610627565b80601f01602080910402602001604051908101604052809291908181526020018280546102e590610627565b80156103325780601f1061030757610100808354040283529160200191610332565b820191906000526020600020905b81548152906001019060200180831161031557829003601f168201915b5050505050905090565b8060018190555050565b6000819050919050565b61035981610346565b82525050565b60006020820190506103746000830184610350565b92915050565b600080fd5b600073ffffffffffffffffffffffffffffffffffffffff82169050919050565b60006103aa8261037f565b9050919050565b6103ba8161039f565b81146103c557600080fd5b50565b6000813590506103d7816103b1565b92915050565b6103e681610346565b81146103f157600080fd5b50565b600081359050610403816103dd565b92915050565b600080604083850312156104205761041f61037a565b5b600061042e858286016103c8565b925050602061043f858286016103f4565b9150509250929050565b600081519050919050565b600082825260208201905092915050565b60005b83811015610483578082015181840152602081019050610468565b83811115610492576000848401525b50505050565b6000601f19601f8301169050919050565b60006104b482610449565b6104be8185610454565b93506104ce818560208601610465565b6104d781610498565b840191505092915050565b600060208201905081810360008301526104fc81846104a9565b905092915050565b60006020828403121561051a5761051961037a565b5b6000610528848285016103f4565b91505092915050565b7f4e487b7100000000000000000000000000000000000000000000000000000000600052601160045260246000fd5b600061056b82610346565b915061057683610346565b9250827fffffffffffffffffffffffffffffffffffffffffffffffffffffffffffffffff038211156105ab576105aa610531565b5b828201905092915050565b6000815190506105c5816103dd565b92915050565b6000602082840312156105e1576105e061037a565b5b60006105ef848285016105b6565b91505092915050565b7f4e487b7100000000000000000000000000000000000000000000000000000000600052602260045260246000fd5b6000600282049050600182168061063f57607f821691505b602082108103610652576106516105f8565b5b5091905056fea2646970667358221220dd81d27c7fab2f14ee72ef65776e64e8a54b8af2a15ee1c2a44b9f085068d4ff64736f6c634300080e0033",
  "immutableReferences": {},
  "source": "// SPDX-License-Identifier: GPL-3.0\r\n\r\npragma solidity >=0.7.0 <0.9.0;\r\n\r\ncontract FirstContract {\r\n    string private greetings = \"Hello World\";\r\n\r\n    uint256 private age;\r\n\r\n    string public myGreetings = \"Hello My World\";\r\n\r\n    function setAge(uint _age) public {\r\n        age = _age;        \r\n    }  \r\n\r\n    function getGreetings() public view returns(string memory) {\r\n        return greetings;\r\n    }\r\n\r\n    uint private balanceRecieved;\r\n\r\n    function depositMoney() public payable {\r\n        balanceRecieved += msg.value;\r\n    }\r\n\r\n    function getBalance() public view returns(uint) {\r\n        return address(this).balance;\r\n    }\r\n\r\n    function withdrawMoneyTo(address payable _to, uint _amt) public {\r\n        if(this.getBalance() > _amt) {\r\n            _to.transfer(_amt);\r\n        }\r\n    }\r\n\r\n}",
  "sourcePath": "D:\\Workspace\\bc\\ethereum\\truffle-ex-2\\contracts\\4_FirstContract.sol",
  "compiler": {
    "name": "solc",
    "version": "0.8.14+commit.80d49f37.Emscripten.clang"
  },
  "schemaVersion": "3.4.7",
  "updatedAt": "2022-06-05T14:46:31.662Z",
  "networkType": "ethereum",
  "devdoc": {
    "kind": "dev",
    "methods": {},
    "version": 1
  },
  "userdoc": {
    "kind": "user",
    "methods": {},
    "version": 1
  }
}