{
  "contractName": "SecondContract",
  "abi": [
    {
      "inputs": [],
      "stateMutability": "nonpayable",
      "type": "constructor"
    },
    {
      "inputs": [],
      "name": "balanceRecieved",
      "outputs": [
        {
          "internalType": "uint256",
          "name": "",
          "type": "uint256"
        }
      ],
      "stateMutability": "view",
      "type": "function",
      "constant": true
    },
    {
      "inputs": [],
      "name": "checkMessage",
      "outputs": [
        {
          "internalType": "string",
          "name": "",
          "type": "string"
        }
      ],
      "stateMutability": "view",
      "type": "function",
      "constant": true
    },
    {
      "inputs": [],
      "name": "paused",
      "outputs": [
        {
          "internalType": "bool",
          "name": "",
          "type": "bool"
        }
      ],
      "stateMutability": "view",
      "type": "function",
      "constant": true
    },
    {
      "inputs": [
        {
          "internalType": "string",
          "name": "_msg",
          "type": "string"
        }
      ],
      "name": "setMsg",
      "outputs": [],
      "stateMutability": "nonpayable",
      "type": "function"
    },
    {
      "inputs": [
        {
          "internalType": "bool",
          "name": "_paused",
          "type": "bool"
        }
      ],
      "name": "setPaused",
      "outputs": [],
      "stateMutability": "nonpayable",
      "type": "function"
    },
    {
      "inputs": [],
      "name": "depositMoney",
      "outputs": [],
      "stateMutability": "payable",
      "type": "function",
      "payable": true
    },
    {
      "inputs": [
        {
          "internalType": "address payable",
          "name": "_to",
          "type": "address"
        }
      ],
      "name": "withdrawMoney",
      "outputs": [],
      "stateMutability": "nonpayable",
      "type": "function"
    },
    {
      "inputs": [
        {
          "internalType": "address payable",
          "name": "_to",
          "type": "address"
        }
      ],
      "name": "destroySmartContract",
      "outputs": [],
      "stateMutability": "nonpayable",
      "type": "function"
    }
  ],
  "bytecode": "0x60806040526040518060400160405280600f81526020017f496e697469616c204d65737361676500000000000000000000000000000000008152506001908051906020019061004f9291906100a2565b5034801561005c57600080fd5b50336000806101000a81548173ffffffffffffffffffffffffffffffffffffffff021916908373ffffffffffffffffffffffffffffffffffffffff1602179055506101a5565b8280546100ae90610174565b90600052602060002090601f0160209004810192826100d05760008555610117565b82601f106100e957805160ff1916838001178555610117565b82800160010185558215610117579182015b828111156101165782518255916020019190600101906100fb565b5b5090506101249190610128565b5090565b5b80821115610141576000816000905550600101610129565b5090565b7f4e487b7100000000000000000000000000000000000000000000000000000000600052602260045260246000fd5b6000600282049050600182168061018c57607f821691505b60208210810361019f5761019e610145565b5b50919050565b610bc880620001b56000396000f3fe60806040526004361061007b5760003560e01c80635482567a1161004e5780635482567a146101055780635c975abb14610130578063c4784fd41461015b578063d4c06b8d146101845761007b565b806316c05aa21461008057806316c38b3c1461008a5780632f971029146100b357806339df43ff146100dc575b600080fd5b6100886101af565b005b34801561009657600080fd5b506100b160048036038101906100ac91906105f4565b6101ca565b005b3480156100bf57600080fd5b506100da60048036038101906100d5919061067f565b610275565b005b3480156100e857600080fd5b5061010360048036038101906100fe919061067f565b61039d565b005b34801561011157600080fd5b5061011a610444565b6040516101279190610745565b60405180910390f35b34801561013c57600080fd5b506101456104d2565b6040516101529190610776565b60405180910390f35b34801561016757600080fd5b50610182600480360381019061017d91906108c6565b6104e5565b005b34801561019057600080fd5b506101996104ff565b6040516101a69190610928565b60405180910390f35b34600260008282546101c19190610972565b92505081905550565b60008054906101000a900473ffffffffffffffffffffffffffffffffffffffff1673ffffffffffffffffffffffffffffffffffffffff163373ffffffffffffffffffffffffffffffffffffffff1614610258576040517f08c379a000000000000000000000000000000000000000000000000000000000815260040161024f90610a14565b60405180910390fd5b80600060146101000a81548160ff02191690831515021790555050565b60008054906101000a900473ffffffffffffffffffffffffffffffffffffffff1673ffffffffffffffffffffffffffffffffffffffff163373ffffffffffffffffffffffffffffffffffffffff1614610303576040517f08c379a00000000000000000000000000000000000000000000000000000000081526004016102fa90610aa6565b60405180910390fd5b600060149054906101000a900460ff1615610353576040517f08c379a000000000000000000000000000000000000000000000000000000000815260040161034a90610b12565b60405180910390fd5b8073ffffffffffffffffffffffffffffffffffffffff166108fc479081150290604051600060405180830381858888f19350505050158015610399573d6000803e3d6000fd5b5050565b60008054906101000a900473ffffffffffffffffffffffffffffffffffffffff1673ffffffffffffffffffffffffffffffffffffffff163373ffffffffffffffffffffffffffffffffffffffff161461042b576040517f08c379a000000000000000000000000000000000000000000000000000000000815260040161042290610a14565b60405180910390fd5b8073ffffffffffffffffffffffffffffffffffffffff16ff5b6001805461045190610b61565b80601f016020809104026020016040519081016040528092919081815260200182805461047d90610b61565b80156104ca5780601f1061049f576101008083540402835291602001916104ca565b820191906000526020600020905b8154815290600101906020018083116104ad57829003601f168201915b505050505081565b600060149054906101000a900460ff1681565b80600190805190602001906104fb929190610505565b5050565b60025481565b82805461051190610b61565b90600052602060002090601f016020900481019282610533576000855561057a565b82601f1061054c57805160ff191683800117855561057a565b8280016001018555821561057a579182015b8281111561057957825182559160200191906001019061055e565b5b509050610587919061058b565b5090565b5b808211156105a457600081600090555060010161058c565b5090565b6000604051905090565b600080fd5b600080fd5b60008115159050919050565b6105d1816105bc565b81146105dc57600080fd5b50565b6000813590506105ee816105c8565b92915050565b60006020828403121561060a576106096105b2565b5b6000610618848285016105df565b91505092915050565b600073ffffffffffffffffffffffffffffffffffffffff82169050919050565b600061064c82610621565b9050919050565b61065c81610641565b811461066757600080fd5b50565b60008135905061067981610653565b92915050565b600060208284031215610695576106946105b2565b5b60006106a38482850161066a565b91505092915050565b600081519050919050565b600082825260208201905092915050565b60005b838110156106e65780820151818401526020810190506106cb565b838111156106f5576000848401525b50505050565b6000601f19601f8301169050919050565b6000610717826106ac565b61072181856106b7565b93506107318185602086016106c8565b61073a816106fb565b840191505092915050565b6000602082019050818103600083015261075f818461070c565b905092915050565b610770816105bc565b82525050565b600060208201905061078b6000830184610767565b92915050565b600080fd5b600080fd5b7f4e487b7100000000000000000000000000000000000000000000000000000000600052604160045260246000fd5b6107d3826106fb565b810181811067ffffffffffffffff821117156107f2576107f161079b565b5b80604052505050565b60006108056105a8565b905061081182826107ca565b919050565b600067ffffffffffffffff8211156108315761083061079b565b5b61083a826106fb565b9050602081019050919050565b82818337600083830152505050565b600061086961086484610816565b6107fb565b90508281526020810184848401111561088557610884610796565b5b610890848285610847565b509392505050565b600082601f8301126108ad576108ac610791565b5b81356108bd848260208601610856565b91505092915050565b6000602082840312156108dc576108db6105b2565b5b600082013567ffffffffffffffff8111156108fa576108f96105b7565b5b61090684828501610898565b91505092915050565b6000819050919050565b6109228161090f565b82525050565b600060208201905061093d6000830184610919565b92915050565b7f4e487b7100000000000000000000000000000000000000000000000000000000600052601160045260246000fd5b600061097d8261090f565b91506109888361090f565b9250827fffffffffffffffffffffffffffffffffffffffffffffffffffffffffffffffff038211156109bd576109bc610943565b5b828201905092915050565b7f596f7520617265204e4f5420746865206f776e65720000000000000000000000600082015250565b60006109fe6015836106b7565b9150610a09826109c8565b602082019050919050565b60006020820190508181036000830152610a2d816109f1565b9050919050565b7f596f7520646f6e7420686176652072696768747320617320596f75206172652060008201527f4e6f7420746865204f776e65722e000000000000000000000000000000000000602082015250565b6000610a90602e836106b7565b9150610a9b82610a34565b604082019050919050565b60006020820190508181036000830152610abf81610a83565b9050919050565b7f436f6e7472616374206973205061757365640000000000000000000000000000600082015250565b6000610afc6012836106b7565b9150610b0782610ac6565b602082019050919050565b60006020820190508181036000830152610b2b81610aef565b9050919050565b7f4e487b7100000000000000000000000000000000000000000000000000000000600052602260045260246000fd5b60006002820490506001821680610b7957607f821691505b602082108103610b8c57610b8b610b32565b5b5091905056fea2646970667358221220a6a70154c018268cbadaf21e7f2312a79255e5490961bfbc027e3147ea9e699164736f6c634300080e0033",
  "immutableReferences": {},
  "source": "// SPDX-License-Identifier: GPL-3.0\r\n\r\npragma solidity >=0.7.0 <0.9.0;\r\n\r\ncontract SecondContract {\r\n\r\n    address owner;\r\n    bool public paused;\r\n    string public checkMessage = \"Initial Message\";\r\n\r\n    constructor() {              \r\n          owner = msg.sender;\r\n    }\r\n\r\n    function setMsg(string memory _msg) public {\r\n        checkMessage = _msg;\r\n    }\r\n\r\n    function setPaused(bool _paused) public {\r\n        require(msg.sender == owner, \"You are NOT the owner\");\r\n        paused = _paused;\r\n    }\r\n\r\n    uint public balanceRecieved;\r\n\r\n    function depositMoney() public payable {\r\n        balanceRecieved += msg.value;\r\n    }\r\n\r\n\r\n    function withdrawMoney(address payable _to) public {\r\n        require(msg.sender == owner, \"You dont have rights as You are Not the Owner.\");\r\n        require(!paused, \"Contract is Paused\");\r\n        _to.transfer(address(this).balance);\r\n    }\r\n\r\n    function destroySmartContract(address payable _to) public {\r\n        require(msg.sender == owner, \"You are NOT the owner\");\r\n        selfdestruct(_to);\r\n    }\r\n\r\n}",
  "sourcePath": "D:\\Workspace\\bc\\ethereum\\truffle-ex-2\\contracts\\5_SecondContract.sol",
  "compiler": {
    "name": "solc",
    "version": "0.8.14+commit.80d49f37.Emscripten.clang"
  },
  "schemaVersion": "3.4.7",
  "updatedAt": "2022-06-05T14:46:32.032Z",
  "networkType": "ethereum",
  "devdoc": {
    "kind": "dev",
    "methods": {},
    "version": 1
  },
  "userdoc": {
    "kind": "user",
    "methods": {},
    "version": 1
  }
}