{
  "contractName": "ThirdContract",
  "abi": [
    {
      "inputs": [],
      "name": "abc",
      "outputs": [
        {
          "internalType": "string",
          "name": "",
          "type": "string"
        }
      ],
      "stateMutability": "view",
      "type": "function",
      "constant": true
    },
    {
      "inputs": [
        {
          "internalType": "uint256",
          "name": "",
          "type": "uint256"
        }
      ],
      "name": "myMap",
      "outputs": [
        {
          "internalType": "string",
          "name": "",
          "type": "string"
        }
      ],
      "stateMutability": "view",
      "type": "function",
      "constant": true
    },
    {
      "inputs": [
        {
          "internalType": "uint256",
          "name": "",
          "type": "uint256"
        }
      ],
      "name": "numbers",
      "outputs": [
        {
          "internalType": "int256",
          "name": "",
          "type": "int256"
        }
      ],
      "stateMutability": "view",
      "type": "function",
      "constant": true
    },
    {
      "inputs": [
        {
          "internalType": "uint256",
          "name": "_index",
          "type": "uint256"
        },
        {
          "internalType": "string",
          "name": "_value",
          "type": "string"
        }
      ],
      "name": "setValue",
      "outputs": [],
      "stateMutability": "nonpayable",
      "type": "function"
    },
    {
      "inputs": [
        {
          "internalType": "uint256",
          "name": "_index",
          "type": "uint256"
        }
      ],
      "name": "getValue",
      "outputs": [
        {
          "internalType": "string",
          "name": "",
          "type": "string"
        }
      ],
      "stateMutability": "view",
      "type": "function",
      "constant": true
    },
    {
      "inputs": [],
      "name": "setNumbers",
      "outputs": [],
      "stateMutability": "nonpayable",
      "type": "function"
    },
    {
      "inputs": [],
      "name": "setNumbersAgain",
      "outputs": [],
      "stateMutability": "nonpayable",
      "type": "function"
    }
  ],
  "bytecode": "0x6080604052604051806020016040528060008152506002908051906020019061002992919061003c565b5034801561003657600080fd5b5061013f565b8280546100489061010e565b90600052602060002090601f01602090048101928261006a57600085556100b1565b82601f1061008357805160ff19168380011785556100b1565b828001600101855582156100b1579182015b828111156100b0578251825591602001919060010190610095565b5b5090506100be91906100c2565b5090565b5b808211156100db5760008160009055506001016100c3565b5090565b7f4e487b7100000000000000000000000000000000000000000000000000000000600052602260045260246000fd5b6000600282049050600182168061012657607f821691505b602082108103610139576101386100df565b5b50919050565b6108ad8061014e6000396000f3fe608060405234801561001057600080fd5b506004361061007d5760003560e01c80636af390aa1161005b5780636af390aa146100c657806392277933146100f65780639d1939db14610114578063d39fa233146101305761007d565b80630ff4c9161461008257806310c66e17146100b257806346d48bde146100bc575b600080fd5b61009c6004803603810190610097919061053b565b610160565b6040516100a99190610601565b60405180910390f35b6100ba610204565b005b6100c4610258565b005b6100e060048036038101906100db919061053b565b610285565b6040516100ed9190610601565b60405180910390f35b6100fe610325565b60405161010b9190610601565b60405180910390f35b61012e60048036038101906101299190610758565b6103b3565b005b61014a6004803603810190610145919061053b565b61042a565b60405161015791906107cd565b60405180910390f35b6060600080838152602001908152602001600020805461017f90610817565b80601f01602080910402602001604051908101604052809291908181526020018280546101ab90610817565b80156101f85780601f106101cd576101008083540402835291602001916101f8565b820191906000526020600020905b8154815290600101906020018083116101db57829003601f168201915b50505050509050919050565b60018080600181540180825580915050600190039060005260206000200160009091909190915055600160029080600181540180825580915050600190039060005260206000200160009091909190915055565b60006001905060148160008154811061027457610273610848565b5b906000526020600020018190555050565b600060205280600052604060002060009150905080546102a490610817565b80601f01602080910402602001604051908101604052809291908181526020018280546102d090610817565b801561031d5780601f106102f25761010080835404028352916020019161031d565b820191906000526020600020905b81548152906001019060200180831161030057829003601f168201915b505050505081565b6002805461033290610817565b80601f016020809104026020016040519081016040528092919081815260200182805461035e90610817565b80156103ab5780601f10610380576101008083540402835291602001916103ab565b820191906000526020600020905b81548152906001019060200180831161038e57829003601f168201915b505050505081565b8060008084815260200190815260200160002090805190602001906103d992919061044e565b506040518060400160405280600281526020017f32330000000000000000000000000000000000000000000000000000000000008152506002908051906020019061042592919061044e565b505050565b6001818154811061043a57600080fd5b906000526020600020016000915090505481565b82805461045a90610817565b90600052602060002090601f01602090048101928261047c57600085556104c3565b82601f1061049557805160ff19168380011785556104c3565b828001600101855582156104c3579182015b828111156104c25782518255916020019190600101906104a7565b5b5090506104d091906104d4565b5090565b5b808211156104ed5760008160009055506001016104d5565b5090565b6000604051905090565b600080fd5b600080fd5b6000819050919050565b61051881610505565b811461052357600080fd5b50565b6000813590506105358161050f565b92915050565b600060208284031215610551576105506104fb565b5b600061055f84828501610526565b91505092915050565b600081519050919050565b600082825260208201905092915050565b60005b838110156105a2578082015181840152602081019050610587565b838111156105b1576000848401525b50505050565b6000601f19601f8301169050919050565b60006105d382610568565b6105dd8185610573565b93506105ed818560208601610584565b6105f6816105b7565b840191505092915050565b6000602082019050818103600083015261061b81846105c8565b905092915050565b600080fd5b600080fd5b7f4e487b7100000000000000000000000000000000000000000000000000000000600052604160045260246000fd5b610665826105b7565b810181811067ffffffffffffffff821117156106845761068361062d565b5b80604052505050565b60006106976104f1565b90506106a3828261065c565b919050565b600067ffffffffffffffff8211156106c3576106c261062d565b5b6106cc826105b7565b9050602081019050919050565b82818337600083830152505050565b60006106fb6106f6846106a8565b61068d565b90508281526020810184848401111561071757610716610628565b5b6107228482856106d9565b509392505050565b600082601f83011261073f5761073e610623565b5b813561074f8482602086016106e8565b91505092915050565b6000806040838503121561076f5761076e6104fb565b5b600061077d85828601610526565b925050602083013567ffffffffffffffff81111561079e5761079d610500565b5b6107aa8582860161072a565b9150509250929050565b6000819050919050565b6107c7816107b4565b82525050565b60006020820190506107e260008301846107be565b92915050565b7f4e487b7100000000000000000000000000000000000000000000000000000000600052602260045260246000fd5b6000600282049050600182168061082f57607f821691505b602082108103610842576108416107e8565b5b50919050565b7f4e487b7100000000000000000000000000000000000000000000000000000000600052603260045260246000fdfea26469706673582212204e8e7f1c25fe8e8502eb865cbb74cfc9b1ce211ae2f6769c8067d8eb4cacc22e64736f6c634300080e0033",
  "immutableReferences": {},
  "source": "// SPDX-License-Identifier: GPL-3.0\r\n\r\npragma solidity >=0.7.0 <0.9.0;\r\n\r\ncontract ThirdContract {\r\n\r\n    mapping(uint => string) public myMap;\r\n\r\n    int[] public numbers;\r\n\r\n    string public abc = \"\";\r\n\r\n    function setValue(uint _index, string memory _value) public {\r\n        myMap[_index] = _value;\r\n        abc = \"23\";\r\n\r\n    }\r\n\r\n    function getValue(uint _index) public view returns (string memory) {\r\n        return myMap[_index];\r\n    }\r\n\r\n    function setNumbers() public {\r\n        numbers.push(1);\r\n        numbers.push(2);\r\n    }\r\n\r\n    function setNumbersAgain() public {\r\n        int[] storage numbers2 = numbers;\r\n        numbers2[0] = 20;\r\n    }\r\n}",
  "sourcePath": "D:\\Workspace\\bc\\ethereum\\truffle-ex-2\\contracts\\6_ThirdContract.sol",
  "compiler": {
    "name": "solc",
    "version": "0.8.14+commit.80d49f37.Emscripten.clang"
  },
  "schemaVersion": "3.4.7",
  "updatedAt": "2022-06-05T14:46:32.345Z",
  "networkType": "ethereum",
  "devdoc": {
    "kind": "dev",
    "methods": {},
    "version": 1
  },
  "userdoc": {
    "kind": "user",
    "methods": {},
    "version": 1
  }
}