{
  "contractName": "ArraysStructsMaps",
  "abi": [
    {
      "inputs": [
        {
          "internalType": "address",
          "name": "",
          "type": "address"
        },
        {
          "internalType": "uint256",
          "name": "",
          "type": "uint256"
        }
      ],
      "name": "carOwners",
      "outputs": [
        {
          "internalType": "address",
          "name": "owner",
          "type": "address"
        },
        {
          "internalType": "string",
          "name": "brand",
          "type": "string"
        },
        {
          "internalType": "string",
          "name": "model",
          "type": "string"
        },
        {
          "internalType": "uint256",
          "name": "year",
          "type": "uint256"
        }
      ],
      "stateMutability": "view",
      "type": "function",
      "constant": true
    },
    {
      "inputs": [
        {
          "internalType": "address",
          "name": "",
          "type": "address"
        },
        {
          "internalType": "address",
          "name": "",
          "type": "address"
        }
      ],
      "name": "links",
      "outputs": [
        {
          "internalType": "bool",
          "name": "",
          "type": "bool"
        }
      ],
      "stateMutability": "view",
      "type": "function",
      "constant": true
    },
    {
      "inputs": [],
      "name": "getNumbers",
      "outputs": [
        {
          "internalType": "uint256[]",
          "name": "",
          "type": "uint256[]"
        }
      ],
      "stateMutability": "view",
      "type": "function",
      "constant": true
    },
    {
      "inputs": [],
      "name": "getNumbersFixed",
      "outputs": [
        {
          "internalType": "uint256[3]",
          "name": "",
          "type": "uint256[3]"
        }
      ],
      "stateMutability": "view",
      "type": "function",
      "constant": true
    },
    {
      "inputs": [
        {
          "internalType": "uint256",
          "name": "_val",
          "type": "uint256"
        }
      ],
      "name": "addNumberArray",
      "outputs": [],
      "stateMutability": "nonpayable",
      "type": "function"
    },
    {
      "inputs": [
        {
          "internalType": "uint256",
          "name": "_index",
          "type": "uint256"
        }
      ],
      "name": "getNumber",
      "outputs": [
        {
          "internalType": "uint256",
          "name": "",
          "type": "uint256"
        }
      ],
      "stateMutability": "view",
      "type": "function",
      "constant": true
    },
    {
      "inputs": [
        {
          "internalType": "uint256",
          "name": "_index",
          "type": "uint256"
        }
      ],
      "name": "deleteNumber",
      "outputs": [],
      "stateMutability": "nonpayable",
      "type": "function"
    },
    {
      "inputs": [],
      "name": "lengthNumberArrauy",
      "outputs": [
        {
          "internalType": "uint256",
          "name": "",
          "type": "uint256"
        }
      ],
      "stateMutability": "view",
      "type": "function",
      "constant": true
    },
    {
      "inputs": [],
      "name": "popNumberArrauy",
      "outputs": [
        {
          "internalType": "uint256[]",
          "name": "",
          "type": "uint256[]"
        }
      ],
      "stateMutability": "nonpayable",
      "type": "function"
    },
    {
      "inputs": [
        {
          "internalType": "address",
          "name": "_addr",
          "type": "address"
        },
        {
          "internalType": "uint256",
          "name": "_bal",
          "type": "uint256"
        }
      ],
      "name": "setBalance",
      "outputs": [],
      "stateMutability": "nonpayable",
      "type": "function"
    },
    {
      "inputs": [
        {
          "internalType": "address",
          "name": "_addr",
          "type": "address"
        }
      ],
      "name": "getBalance",
      "outputs": [
        {
          "internalType": "uint256",
          "name": "",
          "type": "uint256"
        }
      ],
      "stateMutability": "view",
      "type": "function",
      "constant": true
    },
    {
      "inputs": [],
      "name": "getSize",
      "outputs": [
        {
          "internalType": "uint256",
          "name": "",
          "type": "uint256"
        }
      ],
      "stateMutability": "view",
      "type": "function",
      "constant": true
    },
    {
      "inputs": [],
      "name": "first",
      "outputs": [
        {
          "internalType": "uint256",
          "name": "",
          "type": "uint256"
        }
      ],
      "stateMutability": "view",
      "type": "function",
      "constant": true
    },
    {
      "inputs": [],
      "name": "last",
      "outputs": [
        {
          "internalType": "uint256",
          "name": "",
          "type": "uint256"
        }
      ],
      "stateMutability": "view",
      "type": "function",
      "constant": true
    },
    {
      "inputs": [
        {
          "internalType": "uint256",
          "name": "_index",
          "type": "uint256"
        }
      ],
      "name": "get",
      "outputs": [
        {
          "internalType": "uint256",
          "name": "",
          "type": "uint256"
        }
      ],
      "stateMutability": "view",
      "type": "function",
      "constant": true
    },
    {
      "inputs": [],
      "name": "setupCars",
      "outputs": [],
      "stateMutability": "nonpayable",
      "type": "function"
    },
    {
      "inputs": [
        {
          "internalType": "address",
          "name": "_addr",
          "type": "address"
        }
      ],
      "name": "getCars",
      "outputs": [
        {
          "components": [
            {
              "internalType": "address",
              "name": "owner",
              "type": "address"
            },
            {
              "internalType": "string",
              "name": "brand",
              "type": "string"
            },
            {
              "internalType": "string",
              "name": "model",
              "type": "string"
            },
            {
              "internalType": "uint256",
              "name": "year",
              "type": "uint256"
            }
          ],
          "internalType": "struct ArraysStructsMaps.Car[]",
          "name": "",
          "type": "tuple[]"
        }
      ],
      "stateMutability": "view",
      "type": "function",
      "constant": true
    }
  ],
  "bytecode": "0x60806040526040518060e00160405280600160ff168152602001600260ff168152602001600360ff168152602001600460ff168152602001600560ff168152602001600660ff168152602001600760ff16815250600090600762000065929190620000b4565b506040518060600160405280600860ff168152602001600960ff168152602001600a60ff1681525060019060036200009f9291906200010b565b50348015620000ad57600080fd5b5062000174565b828054828255906000526020600020908101928215620000f8579160200282015b82811115620000f7578251829060ff16905591602001919060010190620000d5565b5b50905062000107919062000155565b5090565b826003810192821562000142579160200282015b8281111562000141578251829060ff169055916020019190600101906200011f565b5b50905062000151919062000155565b5090565b5b808211156200017057600081600090555060010162000156565b5090565b611b4b80620001846000396000f3fe608060405234801561001057600080fd5b506004361061010b5760003560e01c80639507d39a116100a2578063e30443bc11610071578063e30443bc14610296578063e44a8b7b146102b2578063ebf204e3146102d0578063f8b2cb4f14610303578063fc563658146103335761010b565b80639507d39a146101fa578063a673630c1461022a578063de8fa4311461025a578063df7fe5a8146102785761010b565b80636ff770f8116100de5780636ff770f81461018657806389895edd146101b657806389f915f6146101c05780639166982b146101de5761010b565b8063067cda81146101105780633df4ddf41461012c57806347799da81461014a5780635c5385df14610168575b600080fd5b61012a6004803603810190610125919061143b565b610363565b005b610134610388565b6040516101419190611477565b60405180910390f35b61015261040e565b60405161015f9190611477565b60405180910390f35b6101706104a9565b60405161017d9190611550565b60405180910390f35b6101a0600480360381019061019b91906115d0565b610529565b6040516101ad91906117d1565b60405180910390f35b6101be61074b565b005b6101c8610be1565b6040516101d59190611550565b60405180910390f35b6101f860048036038101906101f3919061143b565b610c39565b005b610214600480360381019061020f919061143b565b610c65565b6040516102219190611477565b60405180910390f35b610244600480360381019061023f91906117f3565b610cec565b604051610251919061184e565b60405180910390f35b610262610d1b565b60405161026f9190611477565b60405180910390f35b610280610d28565b60405161028d91906118ed565b60405180910390f35b6102b060048036038101906102ab9190611908565b610d73565b005b6102ba610ec8565b6040516102c79190611477565b60405180910390f35b6102ea60048036038101906102e59190611908565b610ed4565b6040516102fa94939291906119a1565b60405180910390f35b61031d600480360381019061031891906115d0565b611051565b60405161032a9190611477565b60405180910390f35b61034d6004803603810190610348919061143b565b61109a565b60405161035a9190611477565b60405180910390f35b60008181548110610377576103766119f4565b5b906000526020600020016000905550565b60006004600060076000815481106103a3576103a26119f4565b5b9060005260206000200160009054906101000a900473ffffffffffffffffffffffffffffffffffffffff1673ffffffffffffffffffffffffffffffffffffffff1673ffffffffffffffffffffffffffffffffffffffff16815260200190815260200160002054905090565b60008060016007805490506104239190611a52565b9050600460006007838154811061043d5761043c6119f4565b5b9060005260206000200160009054906101000a900473ffffffffffffffffffffffffffffffffffffffff1673ffffffffffffffffffffffffffffffffffffffff1673ffffffffffffffffffffffffffffffffffffffff1681526020019081526020016000205491505090565b606060008054806104bd576104bc611a86565b5b60019003818190600052602060002001600090559055600080548060200260200160405190810160405280929190818152602001828054801561051f57602002820191906000526020600020905b81548152602001906001019080831161050b575b5050505050905090565b6060600960008373ffffffffffffffffffffffffffffffffffffffff1673ffffffffffffffffffffffffffffffffffffffff168152602001908152602001600020805480602002602001604051908101604052809291908181526020016000905b8282101561074057838290600052602060002090600402016040518060800160405290816000820160009054906101000a900473ffffffffffffffffffffffffffffffffffffffff1673ffffffffffffffffffffffffffffffffffffffff1673ffffffffffffffffffffffffffffffffffffffff16815260200160018201805461061390611ae4565b80601f016020809104026020016040519081016040528092919081815260200182805461063f90611ae4565b801561068c5780601f106106615761010080835404028352916020019161068c565b820191906000526020600020905b81548152906001019060200180831161066f57829003601f168201915b505050505081526020016002820180546106a590611ae4565b80601f01602080910402602001604051908101604052809291908181526020018280546106d190611ae4565b801561071e5780601f106106f35761010080835404028352916020019161071e565b820191906000526020600020905b81548152906001019060200180831161070157829003601f168201915b505050505081526020016003820154815250508152602001906001019061058a565b505050509050919050565b600060405180608001604052803373ffffffffffffffffffffffffffffffffffffffff1681526020016040518060400160405280600481526020017f4a6565700000000000000000000000000000000000000000000000000000000081525081526020016040518060400160405280600881526020017f5772616e676c657200000000000000000000000000000000000000000000000081525081526020016107e58152509050600060405180608001604052803373ffffffffffffffffffffffffffffffffffffffff1681526020016040518060400160405280600881526020017f4d6168696e64726100000000000000000000000000000000000000000000000081525081526020016040518060400160405280600781526020017f53636f7270696f0000000000000000000000000000000000000000000000000081525081526020016107d881525090506108a16110c1565b33816000019073ffffffffffffffffffffffffffffffffffffffff16908173ffffffffffffffffffffffffffffffffffffffff16815250506040518060400160405280600681526020017f546f796f7461000000000000000000000000000000000000000000000000000081525081602001819052506040518060400160405280600881526020017f466f7274756e657200000000000000000000000000000000000000000000000081525081604001819052506107dc816060018181525050600883908060018154018082558091505060019003906000526020600020906004020160009091909190915060008201518160000160006101000a81548173ffffffffffffffffffffffffffffffffffffffff021916908373ffffffffffffffffffffffffffffffffffffffff16021790555060208201518160010190805190602001906109f09291906110ff565b506040820151816002019080519060200190610a0d9291906110ff565b50606082015181600301555050600882908060018154018082558091505060019003906000526020600020906004020160009091909190915060008201518160000160006101000a81548173ffffffffffffffffffffffffffffffffffffffff021916908373ffffffffffffffffffffffffffffffffffffffff1602179055506020820151816001019080519060200190610aa99291906110ff565b506040820151816002019080519060200190610ac69291906110ff565b50606082015181600301555050600881908060018154018082558091505060019003906000526020600020906004020160009091909190915060008201518160000160006101000a81548173ffffffffffffffffffffffffffffffffffffffff021916908373ffffffffffffffffffffffffffffffffffffffff1602179055506020820151816001019080519060200190610b629291906110ff565b506040820151816002019080519060200190610b7f9291906110ff565b506060820151816003015550506008600960003373ffffffffffffffffffffffffffffffffffffffff1673ffffffffffffffffffffffffffffffffffffffff168152602001908152602001600020908054610bdb929190611185565b50505050565b60606000805480602002602001604051908101604052809291908181526020018280548015610c2f57602002820191906000526020600020905b815481526020019060010190808311610c1b575b5050505050905090565b600081908060018154018082558091505060019003906000526020600020016000909190919091505550565b60006004600060078481548110610c7f57610c7e6119f4565b5b9060005260206000200160009054906101000a900473ffffffffffffffffffffffffffffffffffffffff1673ffffffffffffffffffffffffffffffffffffffff1673ffffffffffffffffffffffffffffffffffffffff168152602001908152602001600020549050919050565b60056020528160005260406000206020528060005260406000206000915091509054906101000a900460ff1681565b6000600780549050905090565b610d3061128e565b6001600380602002604051908101604052809291908260038015610d69576020028201915b815481526020019060010190808311610d55575b5050505050905090565b80600460008473ffffffffffffffffffffffffffffffffffffffff1673ffffffffffffffffffffffffffffffffffffffff16815260200190815260200160002081905550600660008373ffffffffffffffffffffffffffffffffffffffff1673ffffffffffffffffffffffffffffffffffffffff16815260200190815260200160002060009054906101000a900460ff16610ec4576001600660008473ffffffffffffffffffffffffffffffffffffffff1673ffffffffffffffffffffffffffffffffffffffff16815260200190815260200160002060006101000a81548160ff0219169083151502179055506007829080600181540180825580915050600190039060005260206000200160009091909190916101000a81548173ffffffffffffffffffffffffffffffffffffffff021916908373ffffffffffffffffffffffffffffffffffffffff1602179055505b5050565b60008080549050905090565b60096020528160005260406000208181548110610ef057600080fd5b9060005260206000209060040201600091509150508060000160009054906101000a900473ffffffffffffffffffffffffffffffffffffffff1690806001018054610f3a90611ae4565b80601f0160208091040260200160405190810160405280929190818152602001828054610f6690611ae4565b8015610fb35780601f10610f8857610100808354040283529160200191610fb3565b820191906000526020600020905b815481529060010190602001808311610f9657829003601f168201915b505050505090806002018054610fc890611ae4565b80601f0160208091040260200160405190810160405280929190818152602001828054610ff490611ae4565b80156110415780601f1061101657610100808354040283529160200191611041565b820191906000526020600020905b81548152906001019060200180831161102457829003601f168201915b5050505050908060030154905084565b6000600460008373ffffffffffffffffffffffffffffffffffffffff1673ffffffffffffffffffffffffffffffffffffffff168152602001908152602001600020549050919050565b60008082815481106110af576110ae6119f4565b5b90600052602060002001549050919050565b6040518060800160405280600073ffffffffffffffffffffffffffffffffffffffff1681526020016060815260200160608152602001600081525090565b82805461110b90611ae4565b90600052602060002090601f01602090048101928261112d5760008555611174565b82601f1061114657805160ff1916838001178555611174565b82800160010185558215611174579182015b82811115611173578251825591602001919060010190611158565b5b50905061118191906112b0565b5090565b82805482825590600052602060002090600402810192821561127d5760005260206000209160040282015b8281111561127c5782826000820160009054906101000a900473ffffffffffffffffffffffffffffffffffffffff168160000160006101000a81548173ffffffffffffffffffffffffffffffffffffffff021916908373ffffffffffffffffffffffffffffffffffffffff160217905550600182018160010190805461123590611ae4565b6112409291906112cd565b50600282018160020190805461125590611ae4565b6112609291906112cd565b50600382015481600301555050916004019190600401906111b0565b5b50905061128a919061135a565b5090565b6040518060600160405280600390602082028036833780820191505090505090565b5b808211156112c95760008160009055506001016112b1565b5090565b8280546112d990611ae4565b90600052602060002090601f0160209004810192826112fb5760008555611349565b82601f1061130c5780548555611349565b8280016001018555821561134957600052602060002091601f016020900482015b8281111561134857825482559160010191906001019061132d565b5b50905061135691906112b0565b5090565b5b808211156113bc57600080820160006101000a81549073ffffffffffffffffffffffffffffffffffffffff021916905560018201600061139b91906113c0565b6002820160006113ab91906113c0565b60038201600090555060040161135b565b5090565b5080546113cc90611ae4565b6000825580601f106113de57506113fd565b601f0160209004906000526020600020908101906113fc91906112b0565b5b50565b600080fd5b6000819050919050565b61141881611405565b811461142357600080fd5b50565b6000813590506114358161140f565b92915050565b60006020828403121561145157611450611400565b5b600061145f84828501611426565b91505092915050565b61147181611405565b82525050565b600060208201905061148c6000830184611468565b92915050565b600081519050919050565b600082825260208201905092915050565b6000819050602082019050919050565b6114c781611405565b82525050565b60006114d983836114be565b60208301905092915050565b6000602082019050919050565b60006114fd82611492565b611507818561149d565b9350611512836114ae565b8060005b8381101561154357815161152a88826114cd565b9750611535836114e5565b925050600181019050611516565b5085935050505092915050565b6000602082019050818103600083015261156a81846114f2565b905092915050565b600073ffffffffffffffffffffffffffffffffffffffff82169050919050565b600061159d82611572565b9050919050565b6115ad81611592565b81146115b857600080fd5b50565b6000813590506115ca816115a4565b92915050565b6000602082840312156115e6576115e5611400565b5b60006115f4848285016115bb565b91505092915050565b600081519050919050565b600082825260208201905092915050565b6000819050602082019050919050565b61163281611592565b82525050565b600081519050919050565b600082825260208201905092915050565b60005b83811015611672578082015181840152602081019050611657565b83811115611681576000848401525b50505050565b6000601f19601f8301169050919050565b60006116a382611638565b6116ad8185611643565b93506116bd818560208601611654565b6116c681611687565b840191505092915050565b60006080830160008301516116e96000860182611629565b50602083015184820360208601526117018282611698565b9150506040830151848203604086015261171b8282611698565b915050606083015161173060608601826114be565b508091505092915050565b600061174783836116d1565b905092915050565b6000602082019050919050565b6000611767826115fd565b6117718185611608565b93508360208202850161178385611619565b8060005b858110156117bf57848403895281516117a0858261173b565b94506117ab8361174f565b925060208a01995050600181019050611787565b50829750879550505050505092915050565b600060208201905081810360008301526117eb818461175c565b905092915050565b6000806040838503121561180a57611809611400565b5b6000611818858286016115bb565b9250506020611829858286016115bb565b9150509250929050565b60008115159050919050565b61184881611833565b82525050565b6000602082019050611863600083018461183f565b92915050565b600060039050919050565b600081905092915050565b6000819050919050565b6000602082019050919050565b61189f81611869565b6118a98184611874565b92506118b48261187f565b8060005b838110156118e55781516118cc87826114cd565b96506118d783611889565b9250506001810190506118b8565b505050505050565b60006060820190506119026000830184611896565b92915050565b6000806040838503121561191f5761191e611400565b5b600061192d858286016115bb565b925050602061193e85828601611426565b9150509250929050565b61195181611592565b82525050565b600082825260208201905092915050565b600061197382611638565b61197d8185611957565b935061198d818560208601611654565b61199681611687565b840191505092915050565b60006080820190506119b66000830187611948565b81810360208301526119c88186611968565b905081810360408301526119dc8185611968565b90506119eb6060830184611468565b95945050505050565b7f4e487b7100000000000000000000000000000000000000000000000000000000600052603260045260246000fd5b7f4e487b7100000000000000000000000000000000000000000000000000000000600052601160045260246000fd5b6000611a5d82611405565b9150611a6883611405565b925082821015611a7b57611a7a611a23565b5b828203905092915050565b7f4e487b7100000000000000000000000000000000000000000000000000000000600052603160045260246000fd5b7f4e487b7100000000000000000000000000000000000000000000000000000000600052602260045260246000fd5b60006002820490506001821680611afc57607f821691505b602082108103611b0f57611b0e611ab5565b5b5091905056fea26469706673582212209779383f7ec6001069145f27b98c52f7c6bf1c8c6c7f04c894bca68f32dd455564736f6c634300080e0033",
  "immutableReferences": {},
  "source": "// SPDX-License-Identifier: MIT\npragma solidity >=0.4.22 <0.9.0;\n\n// Arrays / Structs / Maps\n// Array : Dynamic / Fixed in Size\n// Insert (push) / get / update / delete / pop / length\n// Create Array in Memory\n// Return Array from a Function\ncontract ArraysStructsMaps {\n    uint[] private numberArray       = [1,2,3,4,5,6,7];  // Dynamic\n    uint[3] private numberArrayFixed = [8,9,10];         // Fixed Size\n    // Get Numbers Array Dynamic Size\n    function getNumbers() external view returns (uint[] memory) {\n        return numberArray;\n    }\n    // Get Number Array Fixed Size (Return also with Fixed Size)\n    function getNumbersFixed() external view returns (uint[3] memory) {\n        return numberArrayFixed;\n    }\n    // Add Element into an Array\n    function addNumberArray(uint _val) external {\n        numberArray.push(_val);     // Add value into the Array\n    }\n    // Get Element from Array\n    function getNumber(uint _index) external view returns (uint) {\n        return numberArray[_index];\n    }\n    // Delete the Data in the Index Position\n    function deleteNumber(uint _index) external {\n        delete numberArray[_index];\n    }\n    function lengthNumberArrauy() external view returns (uint) {\n        return numberArray.length;\n    }\n    function popNumberArrauy() external returns (uint[] memory) {\n        numberArray.pop();\n        return numberArray;\n    }\n    // Maps\n    // Set / Get / Delete\n    mapping(address => uint) private balances;                   // Simple Map\n    mapping(address => mapping(address => bool)) public links;  // Nested\n    // used to implement Iterable Mapping\n    mapping(address => bool) private addressAvailable;                   // Simple Map\n    address[] private balanceKeys;\n    // Set Balances\n    function setBalance(address _addr, uint _bal) external {\n        balances[_addr] = _bal;\n        // Only used for Iterable Maps\n        if(!addressAvailable[_addr]) {\n            addressAvailable[_addr] = true;\n            balanceKeys.push(_addr);\n        }\n    }\n    // Get the Balance for an Account\n    function getBalance(address _addr) external view returns (uint) {\n        return balances[_addr];\n    }\n    // Iterable Maps\n    // Get Balance Map Size\n    function getSize() external view returns (uint) {\n        return balanceKeys.length;\n    }\n    // First Address Balance\n    function first() external view returns (uint) {\n        return balances[balanceKeys[0]];\n    }\n    // Last Address Balance\n    function last() external view returns (uint) {\n        uint lindex = balanceKeys.length - 1;\n        return balances[balanceKeys[lindex]];\n    }\n    // Get Balance\n    function get(uint _index) external view returns (uint) {\n        return balances[balanceKeys[_index]];\n    }\n    // Struct\n    struct Car {\n        address owner;\n        string brand;\n        string model;\n        uint year;\n    }\n    Car[] private cars;\n    mapping(address => Car[]) public carOwners;\n    // Setup Car for the Owner\n    function setupCars() external {\n        Car memory wrangler = Car(msg.sender, \"Jeep\", \"Wrangler\", 2021);\n        Car memory scorpio  = Car({ owner: msg.sender, brand: \"Mahindra\", model: \"Scorpio\", year: 2008});\n        Car memory fortuner;\n        fortuner.owner = msg.sender;\n        fortuner.brand =  \"Toyota\";\n        fortuner.model =  \"Fortuner\";\n        fortuner.year  =  2012;\n        // Add Car to Cars Array\n        cars.push(wrangler);\n        cars.push(scorpio);\n        cars.push(fortuner);\n        // Add the Cars to the Owner\n        carOwners[msg.sender] = cars;\n    }\n    // Get the Cars for the Owner\n    function getCars(address _addr) external view returns (Car[] memory) {\n        return carOwners[_addr];\n    }\n }",
  "sourcePath": "/Users/arafkarsh/workspace/blockchain/blockchain-qs/ethereum/truffle-ex-2/contracts/ArraysStructMaps.sol",
  "compiler": {
    "name": "solc",
    "version": "0.8.14+commit.80d49f37.Emscripten.clang"
  },
  "schemaVersion": "3.4.7",
  "updatedAt": "2022-06-16T13:24:39.977Z",
  "networkType": "ethereum",
  "devdoc": {
    "kind": "dev",
    "methods": {},
    "version": 1
  },
  "userdoc": {
    "kind": "user",
    "methods": {},
    "version": 1
  }
}