{
  "contractName": "DefaultValuesConstants",
  "abi": [
    {
      "inputs": [
        {
          "internalType": "address",
          "name": "caller",
          "type": "address"
        },
        {
          "internalType": "uint256",
          "name": "time",
          "type": "uint256"
        },
        {
          "internalType": "uint256",
          "name": "block",
          "type": "uint256"
        },
        {
          "internalType": "uint256",
          "name": "value",
          "type": "uint256"
        }
      ],
      "name": "CustomError",
      "type": "error"
    },
    {
      "inputs": [],
      "name": "PLACE",
      "outputs": [
        {
          "internalType": "string",
          "name": "",
          "type": "string"
        }
      ],
      "stateMutability": "view",
      "type": "function",
      "constant": true
    },
    {
      "inputs": [],
      "name": "SENDER",
      "outputs": [
        {
          "internalType": "address",
          "name": "",
          "type": "address"
        }
      ],
      "stateMutability": "view",
      "type": "function",
      "constant": true
    },
    {
      "inputs": [],
      "name": "b32",
      "outputs": [
        {
          "internalType": "bytes32",
          "name": "",
          "type": "bytes32"
        }
      ],
      "stateMutability": "view",
      "type": "function",
      "constant": true
    },
    {
      "inputs": [],
      "name": "boolValue",
      "outputs": [
        {
          "internalType": "bool",
          "name": "",
          "type": "bool"
        }
      ],
      "stateMutability": "view",
      "type": "function",
      "constant": true
    },
    {
      "inputs": [],
      "name": "intValue",
      "outputs": [
        {
          "internalType": "int256",
          "name": "",
          "type": "int256"
        }
      ],
      "stateMutability": "view",
      "type": "function",
      "constant": true
    },
    {
      "inputs": [],
      "name": "myAddress",
      "outputs": [
        {
          "internalType": "address",
          "name": "",
          "type": "address"
        }
      ],
      "stateMutability": "view",
      "type": "function",
      "constant": true
    },
    {
      "inputs": [],
      "name": "myPlace2",
      "outputs": [
        {
          "internalType": "string",
          "name": "",
          "type": "string"
        }
      ],
      "stateMutability": "view",
      "type": "function",
      "constant": true
    },
    {
      "inputs": [],
      "name": "owner",
      "outputs": [
        {
          "internalType": "address",
          "name": "",
          "type": "address"
        }
      ],
      "stateMutability": "view",
      "type": "function",
      "constant": true
    },
    {
      "inputs": [],
      "name": "place",
      "outputs": [
        {
          "internalType": "string",
          "name": "",
          "type": "string"
        }
      ],
      "stateMutability": "view",
      "type": "function",
      "constant": true
    },
    {
      "inputs": [],
      "name": "sender",
      "outputs": [
        {
          "internalType": "address",
          "name": "",
          "type": "address"
        }
      ],
      "stateMutability": "view",
      "type": "function",
      "constant": true
    },
    {
      "inputs": [],
      "name": "uintValue",
      "outputs": [
        {
          "internalType": "uint256",
          "name": "",
          "type": "uint256"
        }
      ],
      "stateMutability": "view",
      "type": "function",
      "constant": true
    },
    {
      "inputs": [
        {
          "internalType": "uint256",
          "name": "_val",
          "type": "uint256"
        }
      ],
      "name": "exampleRequire",
      "outputs": [],
      "stateMutability": "pure",
      "type": "function",
      "constant": true
    },
    {
      "inputs": [
        {
          "internalType": "uint256",
          "name": "_val",
          "type": "uint256"
        }
      ],
      "name": "exampleRevert",
      "outputs": [],
      "stateMutability": "pure",
      "type": "function",
      "constant": true
    },
    {
      "inputs": [],
      "name": "exampleAssert",
      "outputs": [],
      "stateMutability": "view",
      "type": "function",
      "constant": true
    },
    {
      "inputs": [
        {
          "internalType": "int256",
          "name": "_val",
          "type": "int256"
        }
      ],
      "name": "changeIntValue",
      "outputs": [],
      "stateMutability": "nonpayable",
      "type": "function"
    },
    {
      "inputs": [
        {
          "internalType": "uint256",
          "name": "_val",
          "type": "uint256"
        }
      ],
      "name": "customError",
      "outputs": [],
      "stateMutability": "view",
      "type": "function",
      "constant": true
    }
  ],
  "bytecode": "0x60a06040526040518060400160405280600581526020017f4b6f636869000000000000000000000000000000000000000000000000000000815250600490805190602001906200005192919062000150565b506040518060400160405280600581526020017f4b6f636869000000000000000000000000000000000000000000000000000000815250600590805190602001906200009f92919062000150565b507390f8bf6a479f320ead074411a4b0e7944ea8c9c1600660006101000a81548173ffffffffffffffffffffffffffffffffffffffff021916908373ffffffffffffffffffffffffffffffffffffffff1602179055507390f8bf6a479f320ead074411a4b0e7944ea8c9c173ffffffffffffffffffffffffffffffffffffffff1660809073ffffffffffffffffffffffffffffffffffffffff168152503480156200014957600080fd5b5062000264565b8280546200015e906200022f565b90600052602060002090601f016020900481019282620001825760008555620001ce565b82601f106200019d57805160ff1916838001178555620001ce565b82800160010185558215620001ce579182015b82811115620001cd578251825591602001919060010190620001b0565b5b509050620001dd9190620001e1565b5090565b5b80821115620001fc576000816000905550600101620001e2565b5090565b7f4e487b7100000000000000000000000000000000000000000000000000000000600052602260045260246000fd5b600060028204905060018216806200024857607f821691505b6020821081036200025e576200025d62000200565b5b50919050565b608051610b5e6200028060003960006104b20152610b5e6000f3fe608060405234801561001057600080fd5b50600436106101005760003560e01c80638b133e1911610097578063988817b011610066578063988817b014610253578063ccbdd03a14610271578063e436d93a1461028f578063f8aab238146102ab57610100565b80638b133e19146101ef5780638da5cb5b146101f957806393af578d1461021757806393cca9181461023557610100565b8063535d499f116100d3578063535d499f14610179578063560480cb146101975780636050f2f8146101b357806367e404ce146101d157610100565b80630c4dae88146101055780631e9c5623146101235780632509f77c1461013f57806326b85ee11461015b575b600080fd5b61010d6102c9565b60405161011a9190610632565b60405180910390f35b61013d60048036038101906101389190610688565b6102cf565b005b61015960048036038101906101549190610688565b610315565b005b610163610363565b60405161017091906106f6565b60405180910390f35b610181610389565b60405161018e91906107aa565b60405180910390f35b6101b160048036038101906101ac9190610688565b610417565b005b6101bb61045d565b6040516101c891906106f6565b60405180910390f35b6101d9610475565b6040516101e691906106f6565b60405180910390f35b6101f761049b565b005b6102016104b0565b60405161020e91906106f6565b60405180910390f35b61021f6104d4565b60405161022c91906107e7565b60405180910390f35b61023d6104e7565b60405161024a91906107aa565b60405180910390f35b61025b610575565b6040516102689190610811565b60405180910390f35b61027961057b565b60405161028691906107aa565b60405180910390f35b6102a960048036038101906102a49190610858565b6105b4565b005b6102b3610613565b6040516102c0919061089e565b60405180910390f35b60015481565b60648111610312576040517f08c379a000000000000000000000000000000000000000000000000000000000815260040161030990610905565b60405180910390fd5b50565b6064811161036057334243836040517f961b65040000000000000000000000000000000000000000000000000000000081526004016103579493929190610925565b60405180910390fd5b50565b600260019054906101000a900473ffffffffffffffffffffffffffffffffffffffff1681565b6004805461039690610999565b80601f01602080910402602001604051908101604052809291908181526020018280546103c290610999565b801561040f5780601f106103e45761010080835404028352916020019161040f565b820191906000526020600020905b8154815290600101906020018083116103f257829003601f168201915b505050505081565b6064811161045a576040517f08c379a000000000000000000000000000000000000000000000000000000000815260040161045190610a16565b60405180910390fd5b50565b7390f8bf6a479f320ead074411a4b0e7944ea8c9c181565b600660009054906101000a900473ffffffffffffffffffffffffffffffffffffffff1681565b6000600154146104ae576104ad610a36565b5b565b7f000000000000000000000000000000000000000000000000000000000000000081565b600260009054906101000a900460ff1681565b600580546104f490610999565b80601f016020809104026020016040519081016040528092919081815260200182805461052090610999565b801561056d5780601f106105425761010080835404028352916020019161056d565b820191906000526020600020905b81548152906001019060200180831161055057829003601f168201915b505050505081565b60005481565b6040518060400160405280600581526020017f4b6f63686900000000000000000000000000000000000000000000000000000081525081565b60018060008282546105c69190610a94565b9250508190555060648113610610576040517f08c379a000000000000000000000000000000000000000000000000000000000815260040161060790610a16565b60405180910390fd5b50565b60035481565b6000819050919050565b61062c81610619565b82525050565b60006020820190506106476000830184610623565b92915050565b600080fd5b6000819050919050565b61066581610652565b811461067057600080fd5b50565b6000813590506106828161065c565b92915050565b60006020828403121561069e5761069d61064d565b5b60006106ac84828501610673565b91505092915050565b600073ffffffffffffffffffffffffffffffffffffffff82169050919050565b60006106e0826106b5565b9050919050565b6106f0816106d5565b82525050565b600060208201905061070b60008301846106e7565b92915050565b600081519050919050565b600082825260208201905092915050565b60005b8381101561074b578082015181840152602081019050610730565b8381111561075a576000848401525b50505050565b6000601f19601f8301169050919050565b600061077c82610711565b610786818561071c565b935061079681856020860161072d565b61079f81610760565b840191505092915050565b600060208201905081810360008301526107c48184610771565b905092915050565b60008115159050919050565b6107e1816107cc565b82525050565b60006020820190506107fc60008301846107d8565b92915050565b61080b81610652565b82525050565b60006020820190506108266000830184610802565b92915050565b61083581610619565b811461084057600080fd5b50565b6000813590506108528161082c565b92915050565b60006020828403121561086e5761086d61064d565b5b600061087c84828501610843565b91505092915050565b6000819050919050565b61089881610885565b82525050565b60006020820190506108b3600083018461088f565b92915050565b7f5f76616c203e2031303000000000000000000000000000000000000000000000600082015250565b60006108ef600a8361071c565b91506108fa826108b9565b602082019050919050565b6000602082019050818103600083015261091e816108e2565b9050919050565b600060808201905061093a60008301876106e7565b6109476020830186610802565b6109546040830185610802565b6109616060830184610802565b95945050505050565b7f4e487b7100000000000000000000000000000000000000000000000000000000600052602260045260246000fd5b600060028204905060018216806109b157607f821691505b6020821081036109c4576109c361096a565b5b50919050565b7f5f76616c203c3d20313030000000000000000000000000000000000000000000600082015250565b6000610a00600b8361071c565b9150610a0b826109ca565b602082019050919050565b60006020820190508181036000830152610a2f816109f3565b9050919050565b7f4e487b7100000000000000000000000000000000000000000000000000000000600052600160045260246000fd5b7f4e487b7100000000000000000000000000000000000000000000000000000000600052601160045260246000fd5b6000610a9f82610619565b9150610aaa83610619565b9250817f7fffffffffffffffffffffffffffffffffffffffffffffffffffffffffffffff03831360008312151615610ae557610ae4610a65565b5b817f8000000000000000000000000000000000000000000000000000000000000000038312600083121615610b1d57610b1c610a65565b5b82820190509291505056fea2646970667358221220b43ff15d15952a9bb831dd5b7e4e5b6f1da9f55b48724aae858f0871b549556a64736f6c634300080e0033",
  "immutableReferences": {
    "29": [
      {
        "length": 32,
        "start": 1202
      }
    ]
  },
  "source": "// SPDX-License-Identifier: MIT\npragma solidity >=0.4.22 <0.9.0;\n\n// Default Values / Constants / Immutable / \n// Error Handling - require / revert / assert\ncontract DefaultValuesConstants {\n    // Default Value\n    uint public uintValue;      // 0\n    int public intValue;        // 0\n    bool public boolValue;      // false\n    address public myAddress;   // 0x0000000000000000000000000000000000000000\n    bytes32 public b32;         // 0x0000000000000000000000000000000000000000000000000000000000000000\n\n    string public myPlace2 = \"Kochi\";\n    // 21885 gas\n    // String \n    string public constant PLACE = \"Kochi\";\n    // 24541 gas\n    // String \n    string public place = \"Kochi\";\n\n    // Gas cost is very High without Constants\n    // 23667 gas\n    // Declare state variable as Constant to save Gas\n    address public sender = 0x90F8bf6A479f320ead074411a4B0e7944Ea8c9C1;\n\n    // Gas Cost is less when you use Constant \n    // 21509 gas \n    // Declare state variable as Constant to save Gas\n    address public constant SENDER = 0x90F8bf6A479f320ead074411a4B0e7944Ea8c9C1;\n\n    // Gas Cost is very less for immmutable State Variable\n    // 21442 gas\n    // Immutable State variable - Initialized ONLY ONCE when its deployed\n    address public immutable owner = 0x90F8bf6A479f320ead074411a4B0e7944Ea8c9C1;\n    \n    // ERROR Handling\n    // ------------------------------------------------------------------------------\n    // Require Example\n    function exampleRequire(uint _val) public pure {\n        require(_val > 100, \"_val <= 100\");\n    }\n    // Revert Example\n    function exampleRevert(uint _val) public pure {\n        if(_val <= 100) {\n            revert(\"_val > 100\");\n        }\n    }\n    // Assert Example\n    function exampleAssert() public view {\n        assert(intValue == 0);\n    }\n    // Change intValue - \n    function changeIntValue(int _val) public {\n        intValue += 1;\n        require(_val > 100, \"_val <= 100\");\n    }\n    // Declare Custom Error\n    error CustomError(address caller, uint time, uint block, uint value);\n    // Custom Error \n    function customError(uint _val) public view {\n        if (_val <= 100) {\n            revert CustomError(msg.sender, block.timestamp, block.number, _val);\n        }\n    }\n}",
  "sourcePath": "/Users/arafkarsh/workspace/blockchain/blockchain-qs/ethereum/truffle-ex-2/contracts/DefaultValuesConstants.sol",
  "compiler": {
    "name": "solc",
    "version": "0.8.14+commit.80d49f37.Emscripten.clang"
  },
  "schemaVersion": "3.4.7",
  "updatedAt": "2022-06-16T13:24:38.586Z",
  "networkType": "ethereum",
  "devdoc": {
    "kind": "dev",
    "methods": {},
    "version": 1
  },
  "userdoc": {
    "kind": "user",
    "methods": {},
    "version": 1
  }
}