{
  "contractName": "EventsLoopsConditions",
  "abi": [
    {
      "anonymous": false,
      "inputs": [
        {
          "indexed": false,
          "internalType": "string",
          "name": "message",
          "type": "string"
        },
        {
          "indexed": false,
          "internalType": "uint256",
          "name": "value",
          "type": "uint256"
        }
      ],
      "name": "Log",
      "type": "event"
    },
    {
      "anonymous": false,
      "inputs": [
        {
          "indexed": true,
          "internalType": "address",
          "name": "_from",
          "type": "address"
        },
        {
          "indexed": true,
          "internalType": "address",
          "name": "_to",
          "type": "address"
        },
        {
          "indexed": false,
          "internalType": "string",
          "name": "message",
          "type": "string"
        }
      ],
      "name": "Message",
      "type": "event"
    },
    {
      "inputs": [],
      "name": "logEvents",
      "outputs": [],
      "stateMutability": "nonpayable",
      "type": "function"
    },
    {
      "inputs": [
        {
          "internalType": "address",
          "name": "_to",
          "type": "address"
        },
        {
          "internalType": "string",
          "name": "_msg",
          "type": "string"
        }
      ],
      "name": "sendMessage",
      "outputs": [],
      "stateMutability": "nonpayable",
      "type": "function"
    },
    {
      "inputs": [],
      "name": "forLoop",
      "outputs": [],
      "stateMutability": "pure",
      "type": "function",
      "constant": true
    },
    {
      "inputs": [],
      "name": "whileLoop",
      "outputs": [],
      "stateMutability": "pure",
      "type": "function",
      "constant": true
    },
    {
      "inputs": [
        {
          "internalType": "uint256",
          "name": "_val",
          "type": "uint256"
        }
      ],
      "name": "ConditionalStmts",
      "outputs": [
        {
          "internalType": "uint256",
          "name": "",
          "type": "uint256"
        }
      ],
      "stateMutability": "pure",
      "type": "function",
      "constant": true
    },
    {
      "inputs": [
        {
          "internalType": "uint256",
          "name": "_val",
          "type": "uint256"
        }
      ],
      "name": "Ternary",
      "outputs": [
        {
          "internalType": "uint256",
          "name": "",
          "type": "uint256"
        }
      ],
      "stateMutability": "pure",
      "type": "function",
      "constant": true
    }
  ],
  "bytecode": "0x608060405234801561001057600080fd5b506105f6806100206000396000f3fe608060405234801561001057600080fd5b50600436106100625760003560e01c806325f7d939146100675780635bbf1d581461007157806393200d32146100a1578063de6f24bb146100d1578063e7c898ef146100ed578063fc0e6008146100f7575b600080fd5b61006f610101565b005b61008b6004803603810190610086919061028e565b61013c565b60405161009891906102ca565b60405180910390f35b6100bb60048036038101906100b6919061028e565b61015a565b6040516100c891906102ca565b60405180910390f35b6100eb60048036038101906100e691906103a8565b61018b565b005b6100f56101f7565b005b6100ff610219565b005b7fdd970dd9b5bfe707922155b058a407655cb18288b807e2216442bca8ad83d6b56104d260405161013291906104aa565b60405180910390a1565b60006064821061014d576001610150565b60005b60ff169050919050565b6000606482101561016e5760009050610186565b6103e88210156101815760019050610186565b600290505b919050565b8273ffffffffffffffffffffffffffffffffffffffff163373ffffffffffffffffffffffffffffffffffffffff167fb3dbe9e9894ca2c11cb6c80bd0b0bccb9f5b41d612dbeeda0d5474de40b874fe84846040516101ea929190610525565b60405180910390a3505050565b60005b600881101561021657808061020e90610578565b9150506101fa565b50565b60005b600881101561024b57600381031561023857600581031561024b575b808061024390610578565b91505061021c565b50565b600080fd5b600080fd5b6000819050919050565b61026b81610258565b811461027657600080fd5b50565b60008135905061028881610262565b92915050565b6000602082840312156102a4576102a361024e565b5b60006102b284828501610279565b91505092915050565b6102c481610258565b82525050565b60006020820190506102df60008301846102bb565b92915050565b600073ffffffffffffffffffffffffffffffffffffffff82169050919050565b6000610310826102e5565b9050919050565b61032081610305565b811461032b57600080fd5b50565b60008135905061033d81610317565b92915050565b600080fd5b600080fd5b600080fd5b60008083601f84011261036857610367610343565b5b8235905067ffffffffffffffff81111561038557610384610348565b5b6020830191508360018202830111156103a1576103a061034d565b5b9250929050565b6000806000604084860312156103c1576103c061024e565b5b60006103cf8682870161032e565b935050602084013567ffffffffffffffff8111156103f0576103ef610253565b5b6103fc86828701610352565b92509250509250925092565b600082825260208201905092915050565b7f736f6d65206d6573736167650000000000000000000000000000000000000000600082015250565b600061044f600c83610408565b915061045a82610419565b602082019050919050565b6000819050919050565b6000819050919050565b600061049461048f61048a84610465565b61046f565b610258565b9050919050565b6104a481610479565b82525050565b600060408201905081810360008301526104c381610442565b90506104d2602083018461049b565b92915050565b82818337600083830152505050565b6000601f19601f8301169050919050565b60006105048385610408565b93506105118385846104d8565b61051a836104e7565b840190509392505050565b600060208201905081810360008301526105408184866104f8565b90509392505050565b7f4e487b7100000000000000000000000000000000000000000000000000000000600052601160045260246000fd5b600061058382610258565b91507fffffffffffffffffffffffffffffffffffffffffffffffffffffffffffffffff82036105b5576105b4610549565b5b60018201905091905056fea2646970667358221220db785626d3b4fe890b83ac28fa7c906232dc9853efad5ac7ac3cf6f15666ed1164736f6c634300080e0033",
  "immutableReferences": {},
  "source": "// SPDX-License-Identifier: MIT\npragma solidity >=0.4.22 <0.9.0;\n\n// Events Loops Conditions\ncontract EventsLoopsConditions {\n    // Events\n    event Log(string message, uint value);\n    // Tx Function\n    function logEvents() external {\n        emit Log(\"some message\", 1234);\n    }\n    // Indexed Logs (Only upto 3 paramms)\n    event Message(address indexed _from, address indexed _to, string message);\n    // Send Message\n    function sendMessage(address _to, string calldata _msg) external {\n        emit Message(msg.sender, _to, _msg);\n    }\n    // For Loop\n    function forLoop() external pure {\n        for(uint x=0; x<8; x++) {\n            // Execute Code\n            if(x==3) {\n                continue;\n            }\n            // Execute more code\n            if(x==5) {\n                break;\n            }\n        }\n    }\n    // While Loop\n    function whileLoop() external pure {\n        uint k=0;\n        while (k<8) {\n            // Execute Code\n            k++;\n        }\n    }\n    // If condition\n    function ConditionalStmts(uint _val) external pure returns (uint) {\n        if( _val < 100) {\n            return 0;\n        } else if (_val < 1000) {\n            return 1;\n        } else {\n            return 2;\n        }\n    }\n    // If condition - Ternary\n    function Ternary(uint _val)  external pure returns (uint) {\n        return _val < 100 ? 0 : 1;\n    }\n}",
  "sourcePath": "/Users/arafkarsh/workspace/blockchain/blockchain-qs/ethereum/truffle-ex-2/contracts/EventsLoopsConditions.sol",
  "compiler": {
    "name": "solc",
    "version": "0.8.14+commit.80d49f37.Emscripten.clang"
  },
  "schemaVersion": "3.4.7",
  "updatedAt": "2022-06-16T13:24:38.971Z",
  "networkType": "ethereum",
  "devdoc": {
    "kind": "dev",
    "methods": {},
    "version": 1
  },
  "userdoc": {
    "kind": "user",
    "methods": {},
    "version": 1
  }
}