{
  "contractName": "FunctionModifier",
  "abi": [
    {
      "inputs": [],
      "name": "running",
      "outputs": [
        {
          "internalType": "bool",
          "name": "",
          "type": "bool"
        }
      ],
      "stateMutability": "view",
      "type": "function",
      "constant": true
    },
    {
      "inputs": [],
      "name": "increment",
      "outputs": [],
      "stateMutability": "nonpayable",
      "type": "function"
    },
    {
      "inputs": [],
      "name": "decrement",
      "outputs": [],
      "stateMutability": "nonpayable",
      "type": "function"
    },
    {
      "inputs": [
        {
          "internalType": "uint256",
          "name": "_value",
          "type": "uint256"
        }
      ],
      "name": "incrementBy",
      "outputs": [],
      "stateMutability": "nonpayable",
      "type": "function"
    },
    {
      "inputs": [],
      "name": "kat",
      "outputs": [],
      "stateMutability": "nonpayable",
      "type": "function"
    },
    {
      "inputs": [],
      "name": "stop",
      "outputs": [],
      "stateMutability": "nonpayable",
      "type": "function"
    },
    {
      "inputs": [],
      "name": "start",
      "outputs": [],
      "stateMutability": "nonpayable",
      "type": "function"
    },
    {
      "inputs": [],
      "name": "getCounter",
      "outputs": [
        {
          "internalType": "uint256",
          "name": "",
          "type": "uint256"
        }
      ],
      "stateMutability": "view",
      "type": "function",
      "constant": true
    }
  ],
  "bytecode": "0x608060405260016000806101000a81548160ff02191690831515021790555034801561002a57600080fd5b506105db8061003a6000396000f3fe608060405234801561001057600080fd5b50600436106100885760003560e01c8063be9a65551161005b578063be9a6555146100db578063d09de08a146100e5578063d85bd526146100ef578063dc7feb261461010d57610088565b806303df179c1461008d57806307da68f5146100a95780632baeceb7146100b35780638ada066e146100bd575b600080fd5b6100a760048036038101906100a29190610376565b610117565b005b6100b16101cc565b005b6100bb6101e8565b005b6100c5610257565b6040516100d291906103b2565b60405180910390f35b6100e3610261565b005b6100ed61027d565b005b6100f76102ec565b60405161010491906103e8565b60405180910390f35b6101156102fd565b005b6001151560008054906101000a900460ff1615151461016b576040517f08c379a000000000000000000000000000000000000000000000000000000000815260040161016290610460565b60405180910390fd5b80606481116101af576040517f08c379a00000000000000000000000000000000000000000000000000000000081526004016101a6906104cc565b60405180910390fd5b81600160008282546101c1919061051b565b925050819055505050565b60008060006101000a81548160ff021916908315150217905550565b6001151560008054906101000a900460ff1615151461023c576040517f08c379a000000000000000000000000000000000000000000000000000000000815260040161023390610460565b60405180910390fd5b600180600082825461024e9190610571565b92505081905550565b6000600154905090565b60016000806101000a81548160ff021916908315150217905550565b6001151560008054906101000a900460ff161515146102d1576040517f08c379a00000000000000000000000000000000000000000000000000000000081526004016102c890610460565b60405180910390fd5b60018060008282546102e3919061051b565b92505081905550565b60008054906101000a900460ff1681565b60156001819055506010600160008282546103189190610571565b92505081905550600360016000828254610332919061051b565b92505081905550565b600080fd5b6000819050919050565b61035381610340565b811461035e57600080fd5b50565b6000813590506103708161034a565b92915050565b60006020828403121561038c5761038b61033b565b5b600061039a84828501610361565b91505092915050565b6103ac81610340565b82525050565b60006020820190506103c760008301846103a3565b92915050565b60008115159050919050565b6103e2816103cd565b82525050565b60006020820190506103fd60008301846103d9565b92915050565b600082825260208201905092915050565b7f52756e6e696e67203d2066616c73650000000000000000000000000000000000600082015250565b600061044a600f83610403565b915061045582610414565b602082019050919050565b600060208201905081810360008301526104798161043d565b9050919050565b7f56616c7565203c20313031000000000000000000000000000000000000000000600082015250565b60006104b6600b83610403565b91506104c182610480565b602082019050919050565b600060208201905081810360008301526104e5816104a9565b9050919050565b7f4e487b7100000000000000000000000000000000000000000000000000000000600052601160045260246000fd5b600061052682610340565b915061053183610340565b9250827fffffffffffffffffffffffffffffffffffffffffffffffffffffffffffffffff03821115610566576105656104ec565b5b828201905092915050565b600061057c82610340565b915061058783610340565b92508282101561059a576105996104ec565b5b82820390509291505056fea26469706673582212208c83fe9553f54a781c53cff22d1c8234eeaf8f1ec4e70d1f5a5edd8cc310e33164736f6c634300080e0033",
  "immutableReferences": {},
  "source": "// SPDX-License-Identifier: MIT\npragma solidity >=0.4.22 <0.9.0;\n\n// Functions Modifier: Basic / Inputs / Sandwich\ncontract FunctionModifier {\n    bool public running = true;\n    uint private counter;\n    // Basic Modifier\n    modifier whenRunning() {\n        require(running == true, \"Running = false\");\n        _; // Execute the target Function Code\n    }\n    // Increment the Counter ONLY when Running = true\n    function increment() external whenRunning {\n        counter += 1;\n    }\n    // Decrement the Counter ONLY when Running = true\n    function decrement() external whenRunning {\n        counter -= 1;\n    }\n    // Modifier with Inputs: Value > Limit\n    modifier min(uint _value) {\n        require(_value > 100, \"Value < 101\");\n        _; // Execute the target function code\n    }\n    // Check the input _value against min value in the Modifier\n    function incrementBy(uint _value) external whenRunning min(_value) {\n        counter += _value;\n    }\n    // Sandwich Modifier\n    modifier sandwich() {\n        counter = 21; // Execute Modifier Code\n        _; // Execute Target Function Code\n        counter += 3; // Execute Modifier Code again\n    }\n    function kat() external sandwich {\n        counter -= 16;\n    }\n    // Stop the Contract\n    function stop() external {\n        running = false;\n    }\n    // Start the Contract\n    function start() external {\n        running = true;\n    }\n    function getCounter() external view returns (uint) {\n        return counter;\n    }\n}",
  "sourcePath": "/Users/arafkarsh/workspace/blockchain/blockchain-qs/ethereum/truffle-ex-2/contracts/FunctionModifier.sol",
  "compiler": {
    "name": "solc",
    "version": "0.8.14+commit.80d49f37.Emscripten.clang"
  },
  "schemaVersion": "3.4.7",
  "updatedAt": "2022-06-16T13:24:37.933Z",
  "networkType": "ethereum",
  "devdoc": {
    "kind": "dev",
    "methods": {},
    "version": 1
  },
  "userdoc": {
    "kind": "user",
    "methods": {},
    "version": 1
  }
}