{
  "contractName": "LanguageFeatures",
  "abi": [
    {
      "inputs": [],
      "name": "specialNumber",
      "outputs": [
        {
          "internalType": "uint256",
          "name": "",
          "type": "uint256"
        }
      ],
      "stateMutability": "view",
      "type": "function",
      "constant": true
    },
    {
      "inputs": [],
      "name": "greeting",
      "outputs": [
        {
          "internalType": "string",
          "name": "",
          "type": "string"
        },
        {
          "internalType": "string",
          "name": "",
          "type": "string"
        }
      ],
      "stateMutability": "view",
      "type": "function",
      "constant": true
    },
    {
      "inputs": [],
      "name": "globalVars",
      "outputs": [
        {
          "internalType": "address",
          "name": "",
          "type": "address"
        },
        {
          "internalType": "uint256",
          "name": "",
          "type": "uint256"
        },
        {
          "internalType": "uint256",
          "name": "",
          "type": "uint256"
        }
      ],
      "stateMutability": "view",
      "type": "function",
      "constant": true
    },
    {
      "inputs": [
        {
          "internalType": "uint256",
          "name": "x",
          "type": "uint256"
        },
        {
          "internalType": "uint256",
          "name": "y",
          "type": "uint256"
        }
      ],
      "name": "add",
      "outputs": [
        {
          "internalType": "uint256",
          "name": "",
          "type": "uint256"
        }
      ],
      "stateMutability": "pure",
      "type": "function",
      "constant": true
    },
    {
      "inputs": [
        {
          "internalType": "uint256",
          "name": "y",
          "type": "uint256"
        }
      ],
      "name": "sub",
      "outputs": [
        {
          "internalType": "uint256",
          "name": "",
          "type": "uint256"
        }
      ],
      "stateMutability": "view",
      "type": "function",
      "constant": true
    }
  ],
  "bytecode": "0x60806040526040518060400160405280601c81526020017f48656c6c6f20576f726c64202d2054727566666c65202d2045782d32000000008152506000908051906020019061004f929190610067565b50601560015534801561006157600080fd5b5061016a565b82805461007390610139565b90600052602060002090601f01602090048101928261009557600085556100dc565b82601f106100ae57805160ff19168380011785556100dc565b828001600101855582156100dc579182015b828111156100db5782518255916020019190600101906100c0565b5b5090506100e991906100ed565b5090565b5b808211156101065760008160009055506001016100ee565b5090565b7f4e487b7100000000000000000000000000000000000000000000000000000000600052602260045260246000fd5b6000600282049050600182168061015157607f821691505b6020821081036101645761016361010a565b5b50919050565b6105ae806101796000396000f3fe608060405234801561001057600080fd5b50600436106100575760003560e01c806327ee58a61461005c57806373f2b2de1461008c578063771602f7146100aa5780637e6230f3146100da578063ef690cc0146100fa575b600080fd5b61007660048036038101906100719190610280565b610119565b60405161008391906102bc565b60405180910390f35b610094610130565b6040516100a191906102bc565b60405180910390f35b6100c460048036038101906100bf91906102d7565b610136565b6040516100d191906102bc565b60405180910390f35b6100e261014c565b6040516100f193929190610358565b60405180910390f35b610102610170565b604051610110929190610428565b60405180910390f35b600081600154610129919061048e565b9050919050565b60015481565b6000818361014491906104c2565b905092915050565b60008060008033905060004290506000439050828282955095509550505050909192565b60608060006040518060400160405280600b81526020017f4c6f63616c2048656c6c6f00000000000000000000000000000000000000000081525090506000818180546101bc90610547565b80601f01602080910402602001604051908101604052809291908181526020018280546101e890610547565b80156102355780601f1061020a57610100808354040283529160200191610235565b820191906000526020600020905b81548152906001019060200180831161021857829003601f168201915b5050505050915092509250509091565b600080fd5b6000819050919050565b61025d8161024a565b811461026857600080fd5b50565b60008135905061027a81610254565b92915050565b60006020828403121561029657610295610245565b5b60006102a48482850161026b565b91505092915050565b6102b68161024a565b82525050565b60006020820190506102d160008301846102ad565b92915050565b600080604083850312156102ee576102ed610245565b5b60006102fc8582860161026b565b925050602061030d8582860161026b565b9150509250929050565b600073ffffffffffffffffffffffffffffffffffffffff82169050919050565b600061034282610317565b9050919050565b61035281610337565b82525050565b600060608201905061036d6000830186610349565b61037a60208301856102ad565b61038760408301846102ad565b949350505050565b600081519050919050565b600082825260208201905092915050565b60005b838110156103c95780820151818401526020810190506103ae565b838111156103d8576000848401525b50505050565b6000601f19601f8301169050919050565b60006103fa8261038f565b610404818561039a565b93506104148185602086016103ab565b61041d816103de565b840191505092915050565b6000604082019050818103600083015261044281856103ef565b9050818103602083015261045681846103ef565b90509392505050565b7f4e487b7100000000000000000000000000000000000000000000000000000000600052601160045260246000fd5b60006104998261024a565b91506104a48361024a565b9250828210156104b7576104b661045f565b5b828203905092915050565b60006104cd8261024a565b91506104d88361024a565b9250827fffffffffffffffffffffffffffffffffffffffffffffffffffffffffffffffff0382111561050d5761050c61045f565b5b828201905092915050565b7f4e487b7100000000000000000000000000000000000000000000000000000000600052602260045260246000fd5b6000600282049050600182168061055f57607f821691505b60208210810361057257610571610518565b5b5091905056fea264697066735822122003ab7676d6552dd8960566101721fa2e7385ea2ceeaeab6fe72d724f16b7e73b64736f6c634300080e0033",
  "immutableReferences": {},
  "source": "// SPDX-License-Identifier: MIT\npragma solidity >=0.4.22 <0.9.0;\n/**\n * State / Local / Global Variables\n * Functions View and Pure\n */\ncontract LanguageFeatures {\n  // State variable are stored in the Blockchain\n  string private hello = \"Hello World - Truffle - Ex-2\";\n  uint public specialNumber = 21;\n\n  // Returns the Greetings - Hello (A State Variable)\n  // View is used to do read-only view of the blockchain data\n  function greeting() public view returns (string memory, string memory) {\n      // Local Variable\n      string memory hello2 = \"Local Hello\";\n      return (hello, hello2);\n  }\n\n  // Global Variables - Part of Blockchain Data\n  function globalVars() external view returns (address, uint, uint) {\n      address sender = msg.sender;\n      uint time = block.timestamp;\n      uint number = block.number;\n      return (sender, time, number);\n  }\n\n  // External and Pure (Read only) Calls for local variables\n  function add(uint x, uint y) external pure returns(uint) {\n    return x+y;\n  }\n\n  // External and View as it reads data from state variable\n  function sub(uint y) external view returns(uint) {\n    return specialNumber-y;\n  }\n\n }\n",
  "sourcePath": "/Users/arafkarsh/workspace/blockchain/blockchain-qs/ethereum/truffle-ex-2/contracts/LanguageFeatures.sol",
  "compiler": {
    "name": "solc",
    "version": "0.8.14+commit.80d49f37.Emscripten.clang"
  },
  "schemaVersion": "3.4.7",
  "updatedAt": "2022-06-07T12:07:04.820Z",
  "networkType": "ethereum",
  "devdoc": {
    "kind": "dev",
    "methods": {},
    "version": 1
  },
  "userdoc": {
    "kind": "user",
    "methods": {},
    "notice": "State / Local / Global Variables Functions View and Pure",
    "version": 1
  }
}