{
  "contractName": "StorageMemoryCallback",
  "abi": [
    {
      "inputs": [
        {
          "internalType": "address",
          "name": "",
          "type": "address"
        }
      ],
      "name": "myKats",
      "outputs": [
        {
          "internalType": "uint256",
          "name": "varInt",
          "type": "uint256"
        },
        {
          "internalType": "string",
          "name": "varText",
          "type": "string"
        },
        {
          "internalType": "bool",
          "name": "varStatus",
          "type": "bool"
        }
      ],
      "stateMutability": "view",
      "type": "function"
    },
    {
      "inputs": [],
      "name": "storeStructure",
      "outputs": [],
      "stateMutability": "nonpayable",
      "type": "function"
    },
    {
      "inputs": [
        {
          "internalType": "string",
          "name": "_text",
          "type": "string"
        }
      ],
      "name": "changeNameIM",
      "outputs": [],
      "stateMutability": "nonpayable",
      "type": "function"
    },
    {
      "inputs": [
        {
          "internalType": "string",
          "name": "_text",
          "type": "string"
        }
      ],
      "name": "changeNameCD",
      "outputs": [],
      "stateMutability": "nonpayable",
      "type": "function"
    },
    {
      "inputs": [
        {
          "internalType": "uint256[]",
          "name": "_vals",
          "type": "uint256[]"
        }
      ],
      "name": "changeValue",
      "outputs": [
        {
          "internalType": "uint256[]",
          "name": "",
          "type": "uint256[]"
        }
      ],
      "stateMutability": "nonpayable",
      "type": "function"
    }
  ],
  "bytecode": "0x608060405234801561001057600080fd5b50610db8806100206000396000f3fe608060405234801561001057600080fd5b50600436106100575760003560e01c80635c94df3f1461005c5780637c0d0003146100665780638c011e7514610098578063d47a916f146100b4578063e044a867146100d0575b600080fd5b610064610100565b005b610080600480360381019061007b9190610778565b61037f565b60405161008f93929190610872565b60405180910390f35b6100b260048036038101906100ad9190610915565b61043e565b005b6100ce60048036038101906100c99190610a92565b610499565b005b6100ea60048036038101906100e59190610bca565b6104f8565b6040516100f79190610cd1565b60405180910390f35b6040518060600160405280601581526020016040518060400160405280600381526020017f6b617400000000000000000000000000000000000000000000000000000000008152508152602001600115158152506000803373ffffffffffffffffffffffffffffffffffffffff1673ffffffffffffffffffffffffffffffffffffffff1681526020019081526020016000206000820151816000015560208201518160010190805190602001906101b89291906105dd565b5060408201518160020160006101000a81548160ff02191690831515021790555090505060008060003373ffffffffffffffffffffffffffffffffffffffff1673ffffffffffffffffffffffffffffffffffffffff16815260200190815260200160002090506040518060400160405280600481526020017f4861776b0000000000000000000000000000000000000000000000000000000081525081600101908051906020019061026b9291906105dd565b5060008060003373ffffffffffffffffffffffffffffffffffffffff1673ffffffffffffffffffffffffffffffffffffffff168152602001908152602001600020604051806060016040529081600082015481526020016001820180546102d190610d22565b80601f01602080910402602001604051908101604052809291908181526020018280546102fd90610d22565b801561034a5780601f1061031f5761010080835404028352916020019161034a565b820191906000526020600020905b81548152906001019060200180831161032d57829003601f168201915b505050505081526020016002820160009054906101000a900460ff1615151515815250509050601e8160000181815250505050565b60006020528060005260406000206000915090508060000154908060010180546103a890610d22565b80601f01602080910402602001604051908101604052809291908181526020018280546103d490610d22565b80156104215780601f106103f657610100808354040283529160200191610421565b820191906000526020600020905b81548152906001019060200180831161040457829003601f168201915b5050505050908060020160009054906101000a900460ff16905083565b60008060003373ffffffffffffffffffffffffffffffffffffffff1673ffffffffffffffffffffffffffffffffffffffff16815260200190815260200160002090508282826001019190610493929190610663565b50505050565b60008060003373ffffffffffffffffffffffffffffffffffffffff1673ffffffffffffffffffffffffffffffffffffffff1681526020019081526020016000209050818160010190805190602001906104f39291906105dd565b505050565b606060008060003373ffffffffffffffffffffffffffffffffffffffff1673ffffffffffffffffffffffffffffffffffffffff1681526020019081526020016000209050826000815181106105505761054f610d53565b5b602002602001015181600001819055506000600367ffffffffffffffff81111561057d5761057c610967565b5b6040519080825280602002602001820160405280156105ab5781602001602082028036833780820191505090505b5090508160000154816000815181106105c7576105c6610d53565b5b6020026020010181815250508092505050919050565b8280546105e990610d22565b90600052602060002090601f01602090048101928261060b5760008555610652565b82601f1061062457805160ff1916838001178555610652565b82800160010185558215610652579182015b82811115610651578251825591602001919060010190610636565b5b50905061065f91906106e9565b5090565b82805461066f90610d22565b90600052602060002090601f01602090048101928261069157600085556106d8565b82601f106106aa57803560ff19168380011785556106d8565b828001600101855582156106d8579182015b828111156106d75782358255916020019190600101906106bc565b5b5090506106e591906106e9565b5090565b5b808211156107025760008160009055506001016106ea565b5090565b6000604051905090565b600080fd5b600080fd5b600073ffffffffffffffffffffffffffffffffffffffff82169050919050565b60006107458261071a565b9050919050565b6107558161073a565b811461076057600080fd5b50565b6000813590506107728161074c565b92915050565b60006020828403121561078e5761078d610710565b5b600061079c84828501610763565b91505092915050565b6000819050919050565b6107b8816107a5565b82525050565b600081519050919050565b600082825260208201905092915050565b60005b838110156107f85780820151818401526020810190506107dd565b83811115610807576000848401525b50505050565b6000601f19601f8301169050919050565b6000610829826107be565b61083381856107c9565b93506108438185602086016107da565b61084c8161080d565b840191505092915050565b60008115159050919050565b61086c81610857565b82525050565b600060608201905061088760008301866107af565b8181036020830152610899818561081e565b90506108a86040830184610863565b949350505050565b600080fd5b600080fd5b600080fd5b60008083601f8401126108d5576108d46108b0565b5b8235905067ffffffffffffffff8111156108f2576108f16108b5565b5b60208301915083600182028301111561090e5761090d6108ba565b5b9250929050565b6000806020838503121561092c5761092b610710565b5b600083013567ffffffffffffffff81111561094a57610949610715565b5b610956858286016108bf565b92509250509250929050565b600080fd5b7f4e487b7100000000000000000000000000000000000000000000000000000000600052604160045260246000fd5b61099f8261080d565b810181811067ffffffffffffffff821117156109be576109bd610967565b5b80604052505050565b60006109d1610706565b90506109dd8282610996565b919050565b600067ffffffffffffffff8211156109fd576109fc610967565b5b610a068261080d565b9050602081019050919050565b82818337600083830152505050565b6000610a35610a30846109e2565b6109c7565b905082815260208101848484011115610a5157610a50610962565b5b610a5c848285610a13565b509392505050565b600082601f830112610a7957610a786108b0565b5b8135610a89848260208601610a22565b91505092915050565b600060208284031215610aa857610aa7610710565b5b600082013567ffffffffffffffff811115610ac657610ac5610715565b5b610ad284828501610a64565b91505092915050565b600067ffffffffffffffff821115610af657610af5610967565b5b602082029050602081019050919050565b610b10816107a5565b8114610b1b57600080fd5b50565b600081359050610b2d81610b07565b92915050565b6000610b46610b4184610adb565b6109c7565b90508083825260208201905060208402830185811115610b6957610b686108ba565b5b835b81811015610b925780610b7e8882610b1e565b845260208401935050602081019050610b6b565b5050509392505050565b600082601f830112610bb157610bb06108b0565b5b8135610bc1848260208601610b33565b91505092915050565b600060208284031215610be057610bdf610710565b5b600082013567ffffffffffffffff811115610bfe57610bfd610715565b5b610c0a84828501610b9c565b91505092915050565b600081519050919050565b600082825260208201905092915050565b6000819050602082019050919050565b610c48816107a5565b82525050565b6000610c5a8383610c3f565b60208301905092915050565b6000602082019050919050565b6000610c7e82610c13565b610c888185610c1e565b9350610c9383610c2f565b8060005b83811015610cc4578151610cab8882610c4e565b9750610cb683610c66565b925050600181019050610c97565b5085935050505092915050565b60006020820190508181036000830152610ceb8184610c73565b905092915050565b7f4e487b7100000000000000000000000000000000000000000000000000000000600052602260045260246000fd5b60006002820490506001821680610d3a57607f821691505b602082108103610d4d57610d4c610cf3565b5b50919050565b7f4e487b7100000000000000000000000000000000000000000000000000000000600052603260045260246000fdfea264697066735822122098e2d7add32b080a4f0985df36f6b1ef43707e575e49ede0ea0a568eabb3277c64736f6c634300080e0033",
  "immutableReferences": {},
  "source": "// SPDX-License-Identifier: MIT\npragma solidity >=0.4.22 <0.9.0;\n\n// Data Locations \n// Storage  = Data is a state variable (Stored in Blockchain)\n// Memory   = Data is loaded into Memory\n// Calldata = Data is loaded into Memory and used ONLY as function input\n//            Data cant be changed when location is Calldata\ncontract StorageMemoryCallback {\n    // Structure\n    struct KatStruct {\n        uint varInt;\n        string varText;\n        bool varStatus;\n    }\n    // Store Structure based on (Caller) Sender Address\n    mapping(address => KatStruct) public myKats;\n\n    // Set Structure into the Map\n    function storeStructure() external {\n        myKats[msg.sender] = KatStruct({varInt: 21, varText: \"kat\", varStatus: true});\n\n        KatStruct storage myKat = myKats[msg.sender];\n        myKat.varText = \"Hawk\";\n\n        KatStruct memory readOnlyKat = myKats[msg.sender];\n        readOnlyKat.varInt = 30;\n    }\n    // Change the Text in the KatStruct\n    // 34850 gas\n    function changeNameIM(string memory _text) external {\n        KatStruct storage myKat = myKats[msg.sender];\n        myKat.varText = _text;\n    }\n     // Change the Value in the KatStruct\n     // 34270 gas - Calldata is less expensive compared to Memory\n    function changeNameCD(string calldata _text) external {\n        KatStruct storage myKat = myKats[msg.sender];\n        myKat.varText = _text;\n    }\n    // Array Size will be fixed with Memory Location\n    function changeValue(uint[] memory _vals) external returns (uint[] memory) {\n        KatStruct storage myKat = myKats[msg.sender];\n        myKat.varInt = _vals[0];\n        // Location = Memory then Array Size MUST be fixed\n        uint[] memory memArray = new uint[](3);\n        memArray[0] = myKat.varInt;\n        return memArray;\n    }\n}",
  "sourcePath": "/Users/arafkarsh/workspace/blockchain/blockchain-qs/ethereum/truffle-ex-2/contracts/StorageMemoryCalldata.sol",
  "compiler": {
    "name": "solc",
    "version": "0.8.14+commit.80d49f37.Emscripten.clang"
  },
  "schemaVersion": "3.4.7",
  "updatedAt": "2022-06-09T08:51:19.730Z",
  "devdoc": {
    "kind": "dev",
    "methods": {},
    "version": 1
  },
  "userdoc": {
    "kind": "user",
    "methods": {},
    "version": 1
  }
}