{
  "contractName": "VariablesFunctions",
  "abi": [
    {
      "anonymous": false,
      "inputs": [
        {
          "indexed": false,
          "internalType": "string",
          "name": "func",
          "type": "string"
        },
        {
          "indexed": false,
          "internalType": "address",
          "name": "sender",
          "type": "address"
        },
        {
          "indexed": false,
          "internalType": "uint256",
          "name": "value",
          "type": "uint256"
        },
        {
          "indexed": false,
          "internalType": "uint256",
          "name": "time",
          "type": "uint256"
        },
        {
          "indexed": false,
          "internalType": "uint256",
          "name": "num",
          "type": "uint256"
        },
        {
          "indexed": false,
          "internalType": "bytes",
          "name": "data",
          "type": "bytes"
        }
      ],
      "name": "Log",
      "type": "event"
    },
    {
      "anonymous": false,
      "inputs": [
        {
          "indexed": false,
          "internalType": "string",
          "name": "func",
          "type": "string"
        },
        {
          "indexed": false,
          "internalType": "address",
          "name": "sender",
          "type": "address"
        },
        {
          "indexed": false,
          "internalType": "uint256",
          "name": "time",
          "type": "uint256"
        },
        {
          "indexed": false,
          "internalType": "uint256",
          "name": "num",
          "type": "uint256"
        },
        {
          "indexed": false,
          "internalType": "bytes",
          "name": "data",
          "type": "bytes"
        }
      ],
      "name": "Log2",
      "type": "event"
    },
    {
      "stateMutability": "payable",
      "type": "fallback",
      "payable": true
    },
    {
      "inputs": [],
      "name": "specialNumber",
      "outputs": [
        {
          "internalType": "uint256",
          "name": "",
          "type": "uint256"
        }
      ],
      "stateMutability": "view",
      "type": "function",
      "constant": true
    },
    {
      "stateMutability": "payable",
      "type": "receive",
      "payable": true
    },
    {
      "inputs": [],
      "name": "greeting",
      "outputs": [
        {
          "internalType": "string",
          "name": "",
          "type": "string"
        },
        {
          "internalType": "string",
          "name": "",
          "type": "string"
        }
      ],
      "stateMutability": "view",
      "type": "function",
      "constant": true
    },
    {
      "inputs": [
        {
          "internalType": "uint256",
          "name": "x",
          "type": "uint256"
        },
        {
          "internalType": "uint256",
          "name": "y",
          "type": "uint256"
        }
      ],
      "name": "add",
      "outputs": [
        {
          "internalType": "uint256",
          "name": "",
          "type": "uint256"
        }
      ],
      "stateMutability": "pure",
      "type": "function",
      "constant": true
    },
    {
      "inputs": [],
      "name": "returnsMultiple",
      "outputs": [
        {
          "internalType": "address",
          "name": "",
          "type": "address"
        },
        {
          "internalType": "uint256",
          "name": "",
          "type": "uint256"
        },
        {
          "internalType": "uint256",
          "name": "",
          "type": "uint256"
        }
      ],
      "stateMutability": "view",
      "type": "function",
      "constant": true
    },
    {
      "inputs": [],
      "name": "returnsNamed",
      "outputs": [
        {
          "internalType": "address",
          "name": "_from",
          "type": "address"
        },
        {
          "internalType": "uint256",
          "name": "_time",
          "type": "uint256"
        },
        {
          "internalType": "uint256",
          "name": "_num",
          "type": "uint256"
        }
      ],
      "stateMutability": "view",
      "type": "function",
      "constant": true
    },
    {
      "inputs": [],
      "name": "assignMultipleValues",
      "outputs": [],
      "stateMutability": "nonpayable",
      "type": "function"
    }
  ],
  "bytecode": "0x60806040526040518060400160405280601c81526020017f48656c6c6f20576f726c64202d2054727566666c65202d2045782d32000000008152506000908051906020019061004f929190610067565b50601560015534801561006157600080fd5b5061016a565b82805461007390610139565b90600052602060002090601f01602090048101928261009557600085556100dc565b82601f106100ae57805160ff19168380011785556100dc565b828001600101855582156100dc579182015b828111156100db5782518255916020019190600101906100c0565b5b5090506100e991906100ed565b5090565b5b808211156101065760008160009055506001016100ee565b5090565b7f4e487b7100000000000000000000000000000000000000000000000000000000600052602260045260246000fd5b6000600282049050600182168061015157607f821691505b6020821081036101645761016361010a565b5b50919050565b610900806101796000396000f3fe6080604052600436106100595760003560e01c806308c038e9146100e157806324d05675146100f857806373f2b2de14610125578063771602f714610150578063b8901c951461018d578063ef690cc0146101ba5761009d565b3661009d577f105a0eccbd9e7b993a3dea85fc9c3bd7253c155c91420892a7f4553bfe973936333442436040516100939493929190610454565b60405180910390a1005b7f105a0eccbd9e7b993a3dea85fc9c3bd7253c155c91420892a7f4553bfe973936333442436000366040516100d796959493929190610558565b60405180910390a1005b3480156100ed57600080fd5b506100f66101e6565b005b34801561010457600080fd5b5061010d61023e565b60405161011c939291906105c7565b60405180910390f35b34801561013157600080fd5b5061013a610251565b60405161014791906105fe565b60405180910390f35b34801561015c57600080fd5b506101776004803603810190610172919061064a565b610257565b60405161018491906105fe565b60405180910390f35b34801561019957600080fd5b506101a261026d565b6040516101b1939291906105c7565b60405180910390f35b3480156101c657600080fd5b506101cf610291565b6040516101dd929190610701565b60405180910390f35b60008060006101f361023e565b9250925092507face742d85b30bf5dea117058b8fee99151fa94a8406a99b13bcb1218ebc19eca838383600036604051610231959493929190610784565b60405180910390a1505050565b6000806000339250429150439050909192565b60015481565b600081836102659190610814565b905092915050565b60008060008033905060004290506000439050828282955095509550505050909192565b60608060006040518060400160405280600b81526020017f4c6f63616c2048656c6c6f00000000000000000000000000000000000000000081525090506000818180546102dd90610899565b80601f016020809104026020016040519081016040528092919081815260200182805461030990610899565b80156103565780601f1061032b57610100808354040283529160200191610356565b820191906000526020600020905b81548152906001019060200180831161033957829003601f168201915b5050505050915092509250509091565b600082825260208201905092915050565b7f7265636569766500000000000000000000000000000000000000000000000000600082015250565b60006103ad600783610366565b91506103b882610377565b602082019050919050565b600073ffffffffffffffffffffffffffffffffffffffff82169050919050565b60006103ee826103c3565b9050919050565b6103fe816103e3565b82525050565b6000819050919050565b61041781610404565b82525050565b600082825260208201905092915050565b50565b600061043e60008361041d565b91506104498261042e565b600082019050919050565b600060c082019050818103600083015261046d816103a0565b905061047c60208301876103f5565b610489604083018661040e565b610496606083018561040e565b6104a3608083018461040e565b81810360a08301526104b481610431565b905095945050505050565b7f66616c6c6261636b000000000000000000000000000000000000000000000000600082015250565b60006104f5600883610366565b9150610500826104bf565b602082019050919050565b82818337600083830152505050565b6000601f19601f8301169050919050565b6000610537838561041d565b935061054483858461050b565b61054d8361051a565b840190509392505050565b600060c0820190508181036000830152610571816104e8565b905061058060208301896103f5565b61058d604083018861040e565b61059a606083018761040e565b6105a7608083018661040e565b81810360a08301526105ba81848661052b565b9050979650505050505050565b60006060820190506105dc60008301866103f5565b6105e9602083018561040e565b6105f6604083018461040e565b949350505050565b6000602082019050610613600083018461040e565b92915050565b600080fd5b61062781610404565b811461063257600080fd5b50565b6000813590506106448161061e565b92915050565b6000806040838503121561066157610660610619565b5b600061066f85828601610635565b925050602061068085828601610635565b9150509250929050565b600081519050919050565b60005b838110156106b3578082015181840152602081019050610698565b838111156106c2576000848401525b50505050565b60006106d38261068a565b6106dd8185610366565b93506106ed818560208601610695565b6106f68161051a565b840191505092915050565b6000604082019050818103600083015261071b81856106c8565b9050818103602083015261072f81846106c8565b90509392505050565b7f61737369676e4d756c7469706c6556616c756573000000000000000000000000600082015250565b600061076e601483610366565b915061077982610738565b602082019050919050565b600060a082019050818103600083015261079d81610761565b90506107ac60208301886103f5565b6107b9604083018761040e565b6107c6606083018661040e565b81810360808301526107d981848661052b565b90509695505050505050565b7f4e487b7100000000000000000000000000000000000000000000000000000000600052601160045260246000fd5b600061081f82610404565b915061082a83610404565b9250827fffffffffffffffffffffffffffffffffffffffffffffffffffffffffffffffff0382111561085f5761085e6107e5565b5b828201905092915050565b7f4e487b7100000000000000000000000000000000000000000000000000000000600052602260045260246000fd5b600060028204905060018216806108b157607f821691505b6020821081036108c4576108c361086a565b5b5091905056fea26469706673582212201296349e84650fbc51cdaf358e10a847ba1cffd158993516388974363fbaca4464736f6c634300080e0033",
  "immutableReferences": {},
  "source": "// SPDX-License-Identifier: MIT\npragma solidity >=0.4.22 <0.9.0;\n// State / Local / Global Variables. Function Visibility, View and Pure, \n// Function Fallback and Receive, Function with Multiple Outputs\ncontract VariablesFunctions {\n  // Funcitioon Visibility\n  // ----------------------------------------------------------------------\n  // private  - ONLY INSIDE the Contract\n  // internal - ONLY INSIDE the Contract and CHILD Contracts\n  // public   - INSIDE & OUTSIDE the Contract\n  // external - ONLY OUTSIDE the Contract\n  // ----------------------------------------------------------------------\n  // State variable are stored in the Blockchain\n  string private hello = \"Hello World - Truffle - Ex-2\";\n  uint public specialNumber = 21;\n  // Returns the Greetings - Hello (A State Variable)\n  // View is used to do read-only view of the blockchain data\n  function greeting() public view returns (string memory, string memory) {\n      string memory hello2 = \"Local Hello\"; // Local Variable\n      return (hello, hello2);\n  }\n  // External and Pure (Read only) Calls for local variables\n  function add(uint x, uint y) external pure returns(uint) {\n    return x+y;\n  }\n  // Global Variables - Part of Blockchain Data - Multiple Return Values\n  // 21780 gas\n  function returnsMultiple() external view returns (address, uint, uint) {\n      address sender = msg.sender;\n      uint time = block.timestamp;\n      uint number = block.number;\n      return (sender, time, number);\n  }\n  // Multiple Returns with named variable. Explicit return statement is NOT Required\n  // 21653 gas - Efficient\n  function returnsNamed() public view returns (address _from, uint _time, uint _num) {\n      _from = msg.sender;\n      _time = block.timestamp;\n      _num  = block.number;\n  }\n  event Log(string func, address sender,  uint value, uint time, uint num, bytes data);\n  event Log2(string func, address sender, uint time, uint num, bytes data);\n  // Assign Multiple Return Values\n  function assignMultipleValues() public  {\n      (address from, uint time, uint num) = returnsNamed();\n       emit Log2(\"assignMultipleValues\",from,time,num,msg.data);\n  }\n  // Fallback\n  fallback() external payable {\n      emit Log(\"fallback\",msg.sender,msg.value,block.timestamp,block.number,msg.data);\n  }\n  // Receive\n  receive() external payable {\n      emit Log(\"receive\",msg.sender,msg.value,block.timestamp,block.number,\"\");\n  }\n  /**\n         Ether is sent to Contract\n                    |\n            is msg.data is Empty?\n                   /  \\\n                 Yes    No\n     receive() exists?   fallback()\n            /  \\\n         Yes    No\n    receive()    fallback()\n   */\n }",
  "sourcePath": "/Users/arafkarsh/workspace/blockchain/blockchain-qs/ethereum/truffle-ex-2/contracts/VariablesFunctions.sol",
  "compiler": {
    "name": "solc",
    "version": "0.8.14+commit.80d49f37.Emscripten.clang"
  },
  "schemaVersion": "3.4.7",
  "updatedAt": "2022-06-16T13:24:37.582Z",
  "networkType": "ethereum",
  "devdoc": {
    "kind": "dev",
    "methods": {},
    "version": 1
  },
  "userdoc": {
    "kind": "user",
    "methods": {},
    "version": 1
  }
}